{
  "_format": "hh-sol-artifact-1",
  "contractName": "NFTCollectionFactory",
  "sourceName": "contracts/NFTCollectionFactory.sol",
  "abi": [
    {
      "anonymous": false,
      "inputs": [
        {
          "indexed": true,
          "internalType": "address",
          "name": "addr",
          "type": "address"
        }
      ],
      "name": "NFTCollectionAddr",
      "type": "event"
    },
    {
      "anonymous": false,
      "inputs": [
        {
          "indexed": false,
          "internalType": "string",
          "name": "name",
          "type": "string"
        },
        {
          "indexed": false,
          "internalType": "string",
          "name": "symbol",
          "type": "string"
        }
      ],
      "name": "NFTCollectionCreated",
      "type": "event"
    },
    {
      "inputs": [
        {
          "internalType": "string",
          "name": "_name",
          "type": "string"
        },
        {
          "internalType": "string",
          "name": "_symbol",
          "type": "string"
        },
        {
          "internalType": "string",
          "name": "_desc",
          "type": "string"
        },
        {
          "internalType": "string",
          "name": "_imageURL",
          "type": "string"
        },
        {
          "internalType": "address",
          "name": "_sender",
          "type": "address"
        },
        {
          "internalType": "address",
          "name": "_nftMarketPlaceAddr",
          "type": "address"
        }
      ],
      "name": "deploy",
      "outputs": [],
      "stateMutability": "nonpayable",
      "type": "function"
    },
    {
      "inputs": [],
      "name": "getMyCollections",
      "outputs": [
        {
          "internalType": "address[]",
          "name": "",
          "type": "address[]"
        }
      ],
      "stateMutability": "view",
      "type": "function"
    },
    {
      "inputs": [],
      "name": "getNFTCollections",
      "outputs": [
        {
          "internalType": "address[]",
          "name": "",
          "type": "address[]"
        }
      ],
      "stateMutability": "view",
      "type": "function"
    }
  ],
  "bytecode": "0x608060405234801561001057600080fd5b50613e79806100206000396000f3fe60806040523480156200001157600080fd5b5060043610620000465760003560e01c80630f309b7b146200004b578063cab0ffbb146200006b578063d6101980146200008d575b600080fd5b620000696004803603810190620000639190620005bc565b620000af565b005b6200007562000374565b604051620000849190620007b5565b60405180910390f35b6200009762000404565b604051620000a69190620007b5565b60405180910390f35b60008a8a905011620000f8576040517f08c379a0000000000000000000000000000000000000000000000000000000008152600401620000ef906200083a565b60405180910390fd5b60008a8a8a8a6040516020016200011394939291906200089f565b6040516020818303038152906040528051906020012090506000816040516200013c90620004d1565b8190604051809103906000f59050801580156200015d573d6000803e3d6000fd5b5090508073ffffffffffffffffffffffffffffffffffffffff16632edfe5a68d8d8d8d8d8d8d8d8d8d6040518b63ffffffff1660e01b8152600401620001ad9a9998979695949392919062000920565b600060405180830381600087803b158015620001c857600080fd5b505af1158015620001dd573d6000803e3d6000fd5b505050506000819080600181540180825580915050600190039060005260206000200160009091909190916101000a81548173ffffffffffffffffffffffffffffffffffffffff021916908373ffffffffffffffffffffffffffffffffffffffff160217905550600160008573ffffffffffffffffffffffffffffffffffffffff1673ffffffffffffffffffffffffffffffffffffffff168152602001908152602001600020819080600181540180825580915050600190039060005260206000200160009091909190916101000a81548173ffffffffffffffffffffffffffffffffffffffff021916908373ffffffffffffffffffffffffffffffffffffffff1602179055507f943e58d63a6ab17c3676ece4f2491c9b9309cdfc4e47cb8c7e2c3b235844886f8c8c8c8c6040516200031b9493929190620009b1565b60405180910390a18073ffffffffffffffffffffffffffffffffffffffff167f526097110590822bbb187a7be3363d51996f642b2828b136546681d78099620660405160405180910390a2505050505050505050505050565b60606000805480602002602001604051908101604052809291908181526020018280548015620003fa57602002820191906000526020600020905b8160009054906101000a900473ffffffffffffffffffffffffffffffffffffffff1673ffffffffffffffffffffffffffffffffffffffff1681526020019060010190808311620003af575b5050505050905090565b6060600160003373ffffffffffffffffffffffffffffffffffffffff1673ffffffffffffffffffffffffffffffffffffffff168152602001908152602001600020805480602002602001604051908101604052809291908181526020018280548015620004c757602002820191906000526020600020905b8160009054906101000a900473ffffffffffffffffffffffffffffffffffffffff1673ffffffffffffffffffffffffffffffffffffffff16815260200190600101908083116200047c575b5050505050905090565b61345380620009f183390190565b600080fd5b600080fd5b600080fd5b600080fd5b600080fd5b60008083601f840112620005115762000510620004e9565b5b8235905067ffffffffffffffff811115620005315762000530620004ee565b5b60208301915083600182028301111562000550576200054f620004f3565b5b9250929050565b600073ffffffffffffffffffffffffffffffffffffffff82169050919050565b6000620005848262000557565b9050919050565b620005968162000577565b8114620005a257600080fd5b50565b600081359050620005b6816200058b565b92915050565b60008060008060008060008060008060c08b8d031215620005e257620005e1620004df565b5b60008b013567ffffffffffffffff811115620006035762000602620004e4565b5b620006118d828e01620004f8565b9a509a505060208b013567ffffffffffffffff811115620006375762000636620004e4565b5b620006458d828e01620004f8565b985098505060408b013567ffffffffffffffff8111156200066b576200066a620004e4565b5b620006798d828e01620004f8565b965096505060608b013567ffffffffffffffff8111156200069f576200069e620004e4565b5b620006ad8d828e01620004f8565b94509450506080620006c28d828e01620005a5565b92505060a0620006d58d828e01620005a5565b9150509295989b9194979a5092959850565b600081519050919050565b600082825260208201905092915050565b6000819050602082019050919050565b6200071e8162000577565b82525050565b600062000732838362000713565b60208301905092915050565b6000602082019050919050565b60006200075882620006e7565b620007648185620006f2565b9350620007718362000703565b8060005b83811015620007a85781516200078c888262000724565b975062000799836200073e565b92505060018101905062000775565b5085935050505092915050565b60006020820190508181036000830152620007d181846200074b565b905092915050565b600082825260208201905092915050565b7f4e616d6520636f756c646e277420626520656d70747921000000000000000000600082015250565b600062000822601783620007d9565b91506200082f82620007ea565b602082019050919050565b60006020820190508181036000830152620008558162000813565b9050919050565b600081905092915050565b82818337600083830152505050565b60006200088483856200085c565b93506200089383858462000867565b82840190509392505050565b6000620008ae82868862000876565b9150620008bd82848662000876565b915081905095945050505050565b6000601f19601f8301169050919050565b6000620008ea8385620007d9565b9350620008f983858462000867565b6200090483620008cb565b840190509392505050565b6200091a8162000577565b82525050565b600060c08201905081810360008301526200093d818c8e620008dc565b9050818103602083015262000954818a8c620008dc565b905081810360408301526200096b81888a620008dc565b9050818103606083015262000982818688620008dc565b90506200099360808301856200090f565b620009a260a08301846200090f565b9b9a5050505050505050505050565b60006040820190508181036000830152620009ce818688620008dc565b90508181036020830152620009e5818486620008dc565b90509594505050505056fe60806040523480156200001157600080fd5b506040518060400160405280600481526020017f6e616d65000000000000000000000000000000000000000000000000000000008152506040518060400160405280600681526020017f73796d626f6c000000000000000000000000000000000000000000000000000081525081600290816200008f91906200042d565b508060039081620000a191906200042d565b50620000b2620000e060201b60201c565b6000819055505050620000da620000ce620000e560201b60201c565b620000ed60201b60201c565b62000514565b600090565b600033905090565b6000600960009054906101000a900473ffffffffffffffffffffffffffffffffffffffff16905081600960006101000a81548173ffffffffffffffffffffffffffffffffffffffff021916908373ffffffffffffffffffffffffffffffffffffffff1602179055508173ffffffffffffffffffffffffffffffffffffffff168173ffffffffffffffffffffffffffffffffffffffff167f8be0079c531659141344cd1fd0a4f28419497f9722a3daafe3b4186f6b6457e060405160405180910390a35050565b600081519050919050565b7f4e487b7100000000000000000000000000000000000000000000000000000000600052604160045260246000fd5b7f4e487b7100000000000000000000000000000000000000000000000000000000600052602260045260246000fd5b600060028204905060018216806200023557607f821691505b6020821081036200024b576200024a620001ed565b5b50919050565b60008190508160005260206000209050919050565b60006020601f8301049050919050565b600082821b905092915050565b600060088302620002b57fffffffffffffffffffffffffffffffffffffffffffffffffffffffffffffffff8262000276565b620002c1868362000276565b95508019841693508086168417925050509392505050565b6000819050919050565b6000819050919050565b60006200030e620003086200030284620002d9565b620002e3565b620002d9565b9050919050565b6000819050919050565b6200032a83620002ed565b62000342620003398262000315565b84845462000283565b825550505050565b600090565b620003596200034a565b620003668184846200031f565b505050565b5b818110156200038e57620003826000826200034f565b6001810190506200036c565b5050565b601f821115620003dd57620003a78162000251565b620003b28462000266565b81016020851015620003c2578190505b620003da620003d18562000266565b8301826200036b565b50505b505050565b600082821c905092915050565b60006200040260001984600802620003e2565b1980831691505092915050565b60006200041d8383620003ef565b9150826002028217905092915050565b6200043882620001b3565b67ffffffffffffffff811115620004545762000453620001be565b5b6200046082546200021c565b6200046d82828562000392565b600060209050601f831160018114620004a5576000841562000490578287015190505b6200049c85826200040f565b8655506200050c565b601f198416620004b58662000251565b60005b82811015620004df57848901518255600182019150602085019450602081019050620004b8565b86831015620004ff5784890151620004fb601f891682620003ef565b8355505b6001600288020188555050505b505050505050565b612f2f80620005246000396000f3fe6080604052600436106101405760003560e01c806370a08231116100b6578063b88d4fde1161006f578063b88d4fde14610435578063c87b56dd14610451578063ceefc2431461048e578063da2ed03e146104b9578063e985e9c5146104e2578063f2fde38b1461051f57610140565b806370a0823114610325578063715018a6146103625780638462151c146103795780638da5cb5b146103b657806395d89b41146103e1578063a22cb4651461040c57610140565b806318160ddd1161010857806318160ddd146102315780631a0925411461025c57806323b872dd146102875780632edfe5a6146102a357806342842e0e146102cc5780636352211e146102e857610140565b806301ffc9a71461014557806306fdde0314610182578063081812fc146101ad578063095ea7b3146101ea5780630ca1c5c914610206575b600080fd5b34801561015157600080fd5b5061016c60048036038101906101679190611f1a565b610548565b6040516101799190611f62565b60405180910390f35b34801561018e57600080fd5b506101976105da565b6040516101a4919061200d565b60405180910390f35b3480156101b957600080fd5b506101d460048036038101906101cf9190612065565b61066c565b6040516101e191906120d3565b60405180910390f35b61020460048036038101906101ff919061211a565b6106eb565b005b34801561021257600080fd5b5061021b61082f565b6040516102289190612169565b60405180910390f35b34801561023d57600080fd5b5061024661083e565b6040516102539190612169565b60405180910390f35b34801561026857600080fd5b50610271610855565b60405161027e919061200d565b60405180910390f35b6102a1600480360381019061029c9190612184565b6108e7565b005b3480156102af57600080fd5b506102ca60048036038101906102c5919061223c565b610c09565b005b6102e660048036038101906102e19190612184565b610caf565b005b3480156102f457600080fd5b5061030f600480360381019061030a9190612065565b610ccf565b60405161031c91906120d3565b60405180910390f35b34801561033157600080fd5b5061034c6004803603810190610347919061234c565b610ce1565b6040516103599190612169565b60405180910390f35b34801561036e57600080fd5b50610377610d99565b005b34801561038557600080fd5b506103a0600480360381019061039b919061234c565b610dad565b6040516103ad9190612437565b60405180910390f35b3480156103c257600080fd5b506103cb610ef0565b6040516103d891906120d3565b60405180910390f35b3480156103ed57600080fd5b506103f6610f1a565b604051610403919061200d565b60405180910390f35b34801561041857600080fd5b50610433600480360381019061042e9190612485565b610fac565b005b61044f600480360381019061044a91906125f5565b6110b7565b005b34801561045d57600080fd5b5061047860048036038101906104739190612065565b61112a565b604051610485919061200d565b60405180910390f35b34801561049a57600080fd5b506104a361123c565b6040516104b0919061200d565b60405180910390f35b3480156104c557600080fd5b506104e060048036038101906104db9190612719565b6112ce565b005b3480156104ee57600080fd5b5061050960048036038101906105049190612762565b611361565b6040516105169190611f62565b60405180910390f35b34801561052b57600080fd5b506105466004803603810190610541919061234c565b6113f5565b005b60006301ffc9a760e01b827bffffffffffffffffffffffffffffffffffffffffffffffffffffffff191614806105a357506380ac58cd60e01b827bffffffffffffffffffffffffffffffffffffffffffffffffffffffff1916145b806105d35750635b5e139f60e01b827bffffffffffffffffffffffffffffffffffffffffffffffffffffffff1916145b9050919050565b6060600280546105e9906127d1565b80601f0160208091040260200160405190810160405280929190818152602001828054610615906127d1565b80156106625780601f1061063757610100808354040283529160200191610662565b820191906000526020600020905b81548152906001019060200180831161064557829003601f168201915b5050505050905090565b600061067782611478565b6106ad576040517fcf4700e400000000000000000000000000000000000000000000000000000000815260040160405180910390fd5b6006600083815260200190815260200160002060000160009054906101000a900473ffffffffffffffffffffffffffffffffffffffff169050919050565b60006106f682610ccf565b90508073ffffffffffffffffffffffffffffffffffffffff166107176114d7565b73ffffffffffffffffffffffffffffffffffffffff161461077a576107438161073e6114d7565b611361565b610779576040517fcfb3b94200000000000000000000000000000000000000000000000000000000815260040160405180910390fd5b5b826006600084815260200190815260200160002060000160006101000a81548173ffffffffffffffffffffffffffffffffffffffff021916908373ffffffffffffffffffffffffffffffffffffffff160217905550818373ffffffffffffffffffffffffffffffffffffffff168273ffffffffffffffffffffffffffffffffffffffff167f8c5be1e5ebec7d5bd14f71427d1e84f3dd0314c0f7b2291e5b200ac8c7c3b92560405160405180910390a4505050565b60006108396114df565b905090565b60006108486114f2565b6001546000540303905090565b6060600b8054610864906127d1565b80601f0160208091040260200160405190810160405280929190818152602001828054610890906127d1565b80156108dd5780601f106108b2576101008083540402835291602001916108dd565b820191906000526020600020905b8154815290600101906020018083116108c057829003601f168201915b5050505050905090565b60006108f2826114f7565b90508373ffffffffffffffffffffffffffffffffffffffff168173ffffffffffffffffffffffffffffffffffffffff1614610959576040517fa114810000000000000000000000000000000000000000000000000000000000815260040160405180910390fd5b600080610965846115c3565b9150915061097b81876109766114d7565b6115ea565b6109c7576109908661098b6114d7565b611361565b6109c6576040517f59c896be00000000000000000000000000000000000000000000000000000000815260040160405180910390fd5b5b600073ffffffffffffffffffffffffffffffffffffffff168573ffffffffffffffffffffffffffffffffffffffff1603610a2d576040517fea553b3400000000000000000000000000000000000000000000000000000000815260040160405180910390fd5b610a3a868686600161162e565b8015610a4557600082555b600560008773ffffffffffffffffffffffffffffffffffffffff1673ffffffffffffffffffffffffffffffffffffffff168152602001908152602001600020600081546001900391905081905550600560008673ffffffffffffffffffffffffffffffffffffffff1673ffffffffffffffffffffffffffffffffffffffff1681526020019081526020016000206000815460010191905081905550610b1385610aef888887611634565b7c02000000000000000000000000000000000000000000000000000000001761165c565b600460008681526020019081526020016000208190555060007c0200000000000000000000000000000000000000000000000000000000841603610b995760006001850190506000600460008381526020019081526020016000205403610b97576000548114610b96578360046000838152602001908152602001600020819055505b5b505b838573ffffffffffffffffffffffffffffffffffffffff168773ffffffffffffffffffffffffffffffffffffffff167fddf252ad1be2c89b69c2b068fc378daa952ba7f163c4a11628f55a4df523b3ef60405160405180910390a4610c018686866001611687565b505050505050565b610c1161168d565b898960029182610c229291906129b9565b50878760039182610c349291906129b9565b508585600b9182610c469291906129b9565b508383600c9182610c589291906129b9565b5080600a60006101000a81548173ffffffffffffffffffffffffffffffffffffffff021916908373ffffffffffffffffffffffffffffffffffffffff160217905550610ca3826113f5565b50505050505050505050565b610cca838383604051806020016040528060008152506110b7565b505050565b6000610cda826114f7565b9050919050565b60008073ffffffffffffffffffffffffffffffffffffffff168273ffffffffffffffffffffffffffffffffffffffff1603610d48576040517f8f4eb60400000000000000000000000000000000000000000000000000000000815260040160405180910390fd5b67ffffffffffffffff600560008473ffffffffffffffffffffffffffffffffffffffff1673ffffffffffffffffffffffffffffffffffffffff16815260200190815260200160002054169050919050565b610da161168d565b610dab600061170b565b565b60606000806000610dbd85610ce1565b905060008167ffffffffffffffff811115610ddb57610dda6124ca565b5b604051908082528060200260200182016040528015610e095781602001602082028036833780820191505090505b509050610e14611e5f565b6000610e1e6114f2565b90505b838614610ee257610e31816117d1565b91508160400151610ed757600073ffffffffffffffffffffffffffffffffffffffff16826000015173ffffffffffffffffffffffffffffffffffffffff1614610e7c57816000015194505b8773ffffffffffffffffffffffffffffffffffffffff168573ffffffffffffffffffffffffffffffffffffffff1603610ed65780838780600101985081518110610ec957610ec8612a89565b5b6020026020010181815250505b5b806001019050610e21565b508195505050505050919050565b6000600960009054906101000a900473ffffffffffffffffffffffffffffffffffffffff16905090565b606060038054610f29906127d1565b80601f0160208091040260200160405190810160405280929190818152602001828054610f55906127d1565b8015610fa25780601f10610f7757610100808354040283529160200191610fa2565b820191906000526020600020905b815481529060010190602001808311610f8557829003601f168201915b5050505050905090565b8060076000610fb96114d7565b73ffffffffffffffffffffffffffffffffffffffff1673ffffffffffffffffffffffffffffffffffffffff16815260200190815260200160002060008473ffffffffffffffffffffffffffffffffffffffff1673ffffffffffffffffffffffffffffffffffffffff16815260200190815260200160002060006101000a81548160ff0219169083151502179055508173ffffffffffffffffffffffffffffffffffffffff166110666114d7565b73ffffffffffffffffffffffffffffffffffffffff167f17307eab39ab6107e8899845ad3d59bd9653f200f220920489ca2b5937696c31836040516110ab9190611f62565b60405180910390a35050565b6110c28484846108e7565b60008373ffffffffffffffffffffffffffffffffffffffff163b14611124576110ed848484846117fc565b611123576040517fd1a57ed600000000000000000000000000000000000000000000000000000000815260040160405180910390fd5b5b50505050565b60606111358261194c565b6000600860008481526020019081526020016000208054611155906127d1565b80601f0160208091040260200160405190810160405280929190818152602001828054611181906127d1565b80156111ce5780601f106111a3576101008083540402835291602001916111ce565b820191906000526020600020905b8154815290600101906020018083116111b157829003601f168201915b5050505050905060006111df611997565b905060008151036111f4578192505050611237565b600082511115611229578082604051602001611211929190612af4565b60405160208183030381529060405292505050611237565b611232846119ae565b925050505b919050565b6060600c805461124b906127d1565b80601f0160208091040260200160405190810160405280929190818152602001828054611277906127d1565b80156112c45780601f10611299576101008083540402835291602001916112c4565b820191906000526020600020905b8154815290600101906020018083116112a757829003601f168201915b5050505050905090565b6112d661168d565b60006112e0611a4c565b90506112ed336001611a55565b6112f78183611a73565b611324600a60009054906101000a900473ffffffffffffffffffffffffffffffffffffffff166001610fac565b7fe883eeefa7f620d513eac93479fc9f54ce03f9f4a72c0d818311a9d19556e8798183604051611355929190612b18565b60405180910390a15050565b6000600760008473ffffffffffffffffffffffffffffffffffffffff1673ffffffffffffffffffffffffffffffffffffffff16815260200190815260200160002060008373ffffffffffffffffffffffffffffffffffffffff1673ffffffffffffffffffffffffffffffffffffffff16815260200190815260200160002060009054906101000a900460ff16905092915050565b6113fd61168d565b600073ffffffffffffffffffffffffffffffffffffffff168173ffffffffffffffffffffffffffffffffffffffff160361146c576040517f08c379a000000000000000000000000000000000000000000000000000000000815260040161146390612bba565b60405180910390fd5b6114758161170b565b50565b6000816114836114f2565b11158015611492575060005482105b80156114d0575060007c0100000000000000000000000000000000000000000000000000000000600460008581526020019081526020016000205416145b9050919050565b600033905090565b60006114e96114f2565b60005403905090565b600090565b600080829050806115066114f2565b1161158c5760005481101561158b5760006004600083815260200190815260200160002054905060007c0100000000000000000000000000000000000000000000000000000000821603611589575b6000810361157f576004600083600190039350838152602001908152602001600020549050611555565b80925050506115be565b505b5b6040517fdf2d9b4200000000000000000000000000000000000000000000000000000000815260040160405180910390fd5b919050565b60008060006006600085815260200190815260200160002090508092508254915050915091565b600073ffffffffffffffffffffffffffffffffffffffff8316925073ffffffffffffffffffffffffffffffffffffffff821691508382148383141790509392505050565b50505050565b60008060e883901c905060e861164b868684611ae0565b62ffffff16901b9150509392505050565b600073ffffffffffffffffffffffffffffffffffffffff83169250814260a01b178317905092915050565b50505050565b611695611ae9565b73ffffffffffffffffffffffffffffffffffffffff166116b3610ef0565b73ffffffffffffffffffffffffffffffffffffffff1614611709576040517f08c379a000000000000000000000000000000000000000000000000000000000815260040161170090612c26565b60405180910390fd5b565b6000600960009054906101000a900473ffffffffffffffffffffffffffffffffffffffff16905081600960006101000a81548173ffffffffffffffffffffffffffffffffffffffff021916908373ffffffffffffffffffffffffffffffffffffffff1602179055508173ffffffffffffffffffffffffffffffffffffffff168173ffffffffffffffffffffffffffffffffffffffff167f8be0079c531659141344cd1fd0a4f28419497f9722a3daafe3b4186f6b6457e060405160405180910390a35050565b6117d9611e5f565b6117f56004600084815260200190815260200160002054611af1565b9050919050565b60008373ffffffffffffffffffffffffffffffffffffffff1663150b7a026118226114d7565b8786866040518563ffffffff1660e01b81526004016118449493929190612c9b565b6020604051808303816000875af192505050801561188057506040513d601f19601f8201168201806040525081019061187d9190612cfc565b60015b6118f9573d80600081146118b0576040519150601f19603f3d011682016040523d82523d6000602084013e6118b5565b606091505b5060008151036118f1576040517fd1a57ed600000000000000000000000000000000000000000000000000000000815260040160405180910390fd5b805181602001fd5b63150b7a0260e01b7bffffffffffffffffffffffffffffffffffffffffffffffffffffffff1916817bffffffffffffffffffffffffffffffffffffffffffffffffffffffff191614915050949350505050565b61195581611478565b611994576040517f08c379a000000000000000000000000000000000000000000000000000000000815260040161198b90612d75565b60405180910390fd5b50565b606060405180602001604052806000815250905090565b60606119b982611478565b6119ef576040517fa14c4b5000000000000000000000000000000000000000000000000000000000815260040160405180910390fd5b60006119f9611997565b90506000815103611a195760405180602001604052806000815250611a44565b80611a2384611ba7565b604051602001611a34929190612af4565b6040516020818303038152906040525b915050919050565b60008054905090565b611a6f828260405180602001604052806000815250611bf7565b5050565b611a7c82611478565b611abb576040517f08c379a0000000000000000000000000000000000000000000000000000000008152600401611ab290612e07565b60405180910390fd5b80600860008481526020019081526020016000209081611adb9190612e27565b505050565b60009392505050565b600033905090565b611af9611e5f565b81816000019073ffffffffffffffffffffffffffffffffffffffff16908173ffffffffffffffffffffffffffffffffffffffff168152505060a082901c816020019067ffffffffffffffff16908167ffffffffffffffff168152505060007c01000000000000000000000000000000000000000000000000000000008316141581604001901515908115158152505060e882901c816060019062ffffff16908162ffffff1681525050919050565b606060a060405101806040526020810391506000825281835b600115611be257600184039350600a81066030018453600a8104905080611bc0575b50828103602084039350808452505050919050565b611c018383611c94565b60008373ffffffffffffffffffffffffffffffffffffffff163b14611c8f57600080549050600083820390505b611c4160008683806001019450866117fc565b611c77576040517fd1a57ed600000000000000000000000000000000000000000000000000000000815260040160405180910390fd5b818110611c2e578160005414611c8c57600080fd5b50505b505050565b60008054905060008203611cd4576040517fb562e8dd00000000000000000000000000000000000000000000000000000000815260040160405180910390fd5b611ce1600084838561162e565b600160406001901b178202600560008573ffffffffffffffffffffffffffffffffffffffff1673ffffffffffffffffffffffffffffffffffffffff16815260200190815260200160002060008282540192505081905550611d5883611d496000866000611634565b611d5285611e4f565b1761165c565b6004600083815260200190815260200160002081905550600080838301905073ffffffffffffffffffffffffffffffffffffffff85169150828260007fddf252ad1be2c89b69c2b068fc378daa952ba7f163c4a11628f55a4df523b3ef600080a4600183015b818114611df957808360007fddf252ad1be2c89b69c2b068fc378daa952ba7f163c4a11628f55a4df523b3ef600080a4600181019050611dbe565b5060008203611e34576040517f2e07630000000000000000000000000000000000000000000000000000000000815260040160405180910390fd5b806000819055505050611e4a6000848385611687565b505050565b60006001821460e11b9050919050565b6040518060800160405280600073ffffffffffffffffffffffffffffffffffffffff168152602001600067ffffffffffffffff168152602001600015158152602001600062ffffff1681525090565b6000604051905090565b600080fd5b600080fd5b60007fffffffff0000000000000000000000000000000000000000000000000000000082169050919050565b611ef781611ec2565b8114611f0257600080fd5b50565b600081359050611f1481611eee565b92915050565b600060208284031215611f3057611f2f611eb8565b5b6000611f3e84828501611f05565b91505092915050565b60008115159050919050565b611f5c81611f47565b82525050565b6000602082019050611f776000830184611f53565b92915050565b600081519050919050565b600082825260208201905092915050565b60005b83811015611fb7578082015181840152602081019050611f9c565b60008484015250505050565b6000601f19601f8301169050919050565b6000611fdf82611f7d565b611fe98185611f88565b9350611ff9818560208601611f99565b61200281611fc3565b840191505092915050565b600060208201905081810360008301526120278184611fd4565b905092915050565b6000819050919050565b6120428161202f565b811461204d57600080fd5b50565b60008135905061205f81612039565b92915050565b60006020828403121561207b5761207a611eb8565b5b600061208984828501612050565b91505092915050565b600073ffffffffffffffffffffffffffffffffffffffff82169050919050565b60006120bd82612092565b9050919050565b6120cd816120b2565b82525050565b60006020820190506120e860008301846120c4565b92915050565b6120f7816120b2565b811461210257600080fd5b50565b600081359050612114816120ee565b92915050565b6000806040838503121561213157612130611eb8565b5b600061213f85828601612105565b925050602061215085828601612050565b9150509250929050565b6121638161202f565b82525050565b600060208201905061217e600083018461215a565b92915050565b60008060006060848603121561219d5761219c611eb8565b5b60006121ab86828701612105565b93505060206121bc86828701612105565b92505060406121cd86828701612050565b9150509250925092565b600080fd5b600080fd5b600080fd5b60008083601f8401126121fc576121fb6121d7565b5b8235905067ffffffffffffffff811115612219576122186121dc565b5b602083019150836001820283011115612235576122346121e1565b5b9250929050565b60008060008060008060008060008060c08b8d03121561225f5761225e611eb8565b5b60008b013567ffffffffffffffff81111561227d5761227c611ebd565b5b6122898d828e016121e6565b9a509a505060208b013567ffffffffffffffff8111156122ac576122ab611ebd565b5b6122b88d828e016121e6565b985098505060408b013567ffffffffffffffff8111156122db576122da611ebd565b5b6122e78d828e016121e6565b965096505060608b013567ffffffffffffffff81111561230a57612309611ebd565b5b6123168d828e016121e6565b945094505060806123298d828e01612105565b92505060a061233a8d828e01612105565b9150509295989b9194979a5092959850565b60006020828403121561236257612361611eb8565b5b600061237084828501612105565b91505092915050565b600081519050919050565b600082825260208201905092915050565b6000819050602082019050919050565b6123ae8161202f565b82525050565b60006123c083836123a5565b60208301905092915050565b6000602082019050919050565b60006123e482612379565b6123ee8185612384565b93506123f983612395565b8060005b8381101561242a57815161241188826123b4565b975061241c836123cc565b9250506001810190506123fd565b5085935050505092915050565b6000602082019050818103600083015261245181846123d9565b905092915050565b61246281611f47565b811461246d57600080fd5b50565b60008135905061247f81612459565b92915050565b6000806040838503121561249c5761249b611eb8565b5b60006124aa85828601612105565b92505060206124bb85828601612470565b9150509250929050565b600080fd5b7f4e487b7100000000000000000000000000000000000000000000000000000000600052604160045260246000fd5b61250282611fc3565b810181811067ffffffffffffffff82111715612521576125206124ca565b5b80604052505050565b6000612534611eae565b905061254082826124f9565b919050565b600067ffffffffffffffff8211156125605761255f6124ca565b5b61256982611fc3565b9050602081019050919050565b82818337600083830152505050565b600061259861259384612545565b61252a565b9050828152602081018484840111156125b4576125b36124c5565b5b6125bf848285612576565b509392505050565b600082601f8301126125dc576125db6121d7565b5b81356125ec848260208601612585565b91505092915050565b6000806000806080858703121561260f5761260e611eb8565b5b600061261d87828801612105565b945050602061262e87828801612105565b935050604061263f87828801612050565b925050606085013567ffffffffffffffff8111156126605761265f611ebd565b5b61266c878288016125c7565b91505092959194509250565b600067ffffffffffffffff821115612693576126926124ca565b5b61269c82611fc3565b9050602081019050919050565b60006126bc6126b784612678565b61252a565b9050828152602081018484840111156126d8576126d76124c5565b5b6126e3848285612576565b509392505050565b600082601f830112612700576126ff6121d7565b5b81356127108482602086016126a9565b91505092915050565b60006020828403121561272f5761272e611eb8565b5b600082013567ffffffffffffffff81111561274d5761274c611ebd565b5b612759848285016126eb565b91505092915050565b6000806040838503121561277957612778611eb8565b5b600061278785828601612105565b925050602061279885828601612105565b9150509250929050565b7f4e487b7100000000000000000000000000000000000000000000000000000000600052602260045260246000fd5b600060028204905060018216806127e957607f821691505b6020821081036127fc576127fb6127a2565b5b50919050565b600082905092915050565b60008190508160005260206000209050919050565b60006020601f8301049050919050565b600082821b905092915050565b60006008830261286f7fffffffffffffffffffffffffffffffffffffffffffffffffffffffffffffffff82612832565b6128798683612832565b95508019841693508086168417925050509392505050565b6000819050919050565b60006128b66128b16128ac8461202f565b612891565b61202f565b9050919050565b6000819050919050565b6128d08361289b565b6128e46128dc826128bd565b84845461283f565b825550505050565b600090565b6128f96128ec565b6129048184846128c7565b505050565b5b818110156129285761291d6000826128f1565b60018101905061290a565b5050565b601f82111561296d5761293e8161280d565b61294784612822565b81016020851015612956578190505b61296a61296285612822565b830182612909565b50505b505050565b600082821c905092915050565b600061299060001984600802612972565b1980831691505092915050565b60006129a9838361297f565b9150826002028217905092915050565b6129c38383612802565b67ffffffffffffffff8111156129dc576129db6124ca565b5b6129e682546127d1565b6129f182828561292c565b6000601f831160018114612a205760008415612a0e578287013590505b612a18858261299d565b865550612a80565b601f198416612a2e8661280d565b60005b82811015612a5657848901358255600182019150602085019450602081019050612a31565b86831015612a735784890135612a6f601f89168261297f565b8355505b6001600288020188555050505b50505050505050565b7f4e487b7100000000000000000000000000000000000000000000000000000000600052603260045260246000fd5b600081905092915050565b6000612ace82611f7d565b612ad88185612ab8565b9350612ae8818560208601611f99565b80840191505092915050565b6000612b008285612ac3565b9150612b0c8284612ac3565b91508190509392505050565b6000604082019050612b2d600083018561215a565b8181036020830152612b3f8184611fd4565b90509392505050565b7f4f776e61626c653a206e6577206f776e657220697320746865207a65726f206160008201527f6464726573730000000000000000000000000000000000000000000000000000602082015250565b6000612ba4602683611f88565b9150612baf82612b48565b604082019050919050565b60006020820190508181036000830152612bd381612b97565b9050919050565b7f4f776e61626c653a2063616c6c6572206973206e6f7420746865206f776e6572600082015250565b6000612c10602083611f88565b9150612c1b82612bda565b602082019050919050565b60006020820190508181036000830152612c3f81612c03565b9050919050565b600081519050919050565b600082825260208201905092915050565b6000612c6d82612c46565b612c778185612c51565b9350612c87818560208601611f99565b612c9081611fc3565b840191505092915050565b6000608082019050612cb060008301876120c4565b612cbd60208301866120c4565b612cca604083018561215a565b8181036060830152612cdc8184612c62565b905095945050505050565b600081519050612cf681611eee565b92915050565b600060208284031215612d1257612d11611eb8565b5b6000612d2084828501612ce7565b91505092915050565b7f4552433732313a20696e76616c696420746f6b656e2049440000000000000000600082015250565b6000612d5f601883611f88565b9150612d6a82612d29565b602082019050919050565b60006020820190508181036000830152612d8e81612d52565b9050919050565b7f45524337323155524953746f726167653a2055524920736574206f66206e6f6e60008201527f6578697374656e7420746f6b656e000000000000000000000000000000000000602082015250565b6000612df1602e83611f88565b9150612dfc82612d95565b604082019050919050565b60006020820190508181036000830152612e2081612de4565b9050919050565b612e3082611f7d565b67ffffffffffffffff811115612e4957612e486124ca565b5b612e5382546127d1565b612e5e82828561292c565b600060209050601f831160018114612e915760008415612e7f578287015190505b612e89858261299d565b865550612ef1565b601f198416612e9f8661280d565b60005b82811015612ec757848901518255600182019150602085019450602081019050612ea2565b86831015612ee45784890151612ee0601f89168261297f565b8355505b6001600288020188555050505b50505050505056fea26469706673582212205188e3fbeab61788bb449798eb037c6b2c82eb4bfffaf21129b7ecb45ac5204f64736f6c63430008110033a2646970667358221220fbd9b7d5e2fedcbfbb6f3a225195420c50b38315363111bdf9b21f75c514415864736f6c63430008110033",
  "linkReferences": {},
  "deployedLinkReferences": {}
}