{
  "_format": "hh-sol-artifact-1",
  "contractName": "NFTCollection",
  "sourceName": "contracts/NFTCollection.sol",
  "abi": [
    {
      "inputs": [],
      "stateMutability": "nonpayable",
      "type": "constructor"
    },
    {
      "inputs": [],
      "name": "ApprovalCallerNotOwnerNorApproved",
      "type": "error"
    },
    {
      "inputs": [],
      "name": "ApprovalQueryForNonexistentToken",
      "type": "error"
    },
    {
      "inputs": [],
      "name": "BalanceQueryForZeroAddress",
      "type": "error"
    },
    {
      "inputs": [],
      "name": "MintERC2309QuantityExceedsLimit",
      "type": "error"
    },
    {
      "inputs": [],
      "name": "MintToZeroAddress",
      "type": "error"
    },
    {
      "inputs": [],
      "name": "MintZeroQuantity",
      "type": "error"
    },
    {
      "inputs": [],
      "name": "OwnerQueryForNonexistentToken",
      "type": "error"
    },
    {
      "inputs": [],
      "name": "OwnershipNotInitializedForExtraData",
      "type": "error"
    },
    {
      "inputs": [],
      "name": "TransferCallerNotOwnerNorApproved",
      "type": "error"
    },
    {
      "inputs": [],
      "name": "TransferFromIncorrectOwner",
      "type": "error"
    },
    {
      "inputs": [],
      "name": "TransferToNonERC721ReceiverImplementer",
      "type": "error"
    },
    {
      "inputs": [],
      "name": "TransferToZeroAddress",
      "type": "error"
    },
    {
      "inputs": [],
      "name": "URIQueryForNonexistentToken",
      "type": "error"
    },
    {
      "anonymous": false,
      "inputs": [
        {
          "indexed": true,
          "internalType": "address",
          "name": "owner",
          "type": "address"
        },
        {
          "indexed": true,
          "internalType": "address",
          "name": "approved",
          "type": "address"
        },
        {
          "indexed": true,
          "internalType": "uint256",
          "name": "tokenId",
          "type": "uint256"
        }
      ],
      "name": "Approval",
      "type": "event"
    },
    {
      "anonymous": false,
      "inputs": [
        {
          "indexed": true,
          "internalType": "address",
          "name": "owner",
          "type": "address"
        },
        {
          "indexed": true,
          "internalType": "address",
          "name": "operator",
          "type": "address"
        },
        {
          "indexed": false,
          "internalType": "bool",
          "name": "approved",
          "type": "bool"
        }
      ],
      "name": "ApprovalForAll",
      "type": "event"
    },
    {
      "anonymous": false,
      "inputs": [
        {
          "indexed": true,
          "internalType": "uint256",
          "name": "fromTokenId",
          "type": "uint256"
        },
        {
          "indexed": false,
          "internalType": "uint256",
          "name": "toTokenId",
          "type": "uint256"
        },
        {
          "indexed": true,
          "internalType": "address",
          "name": "from",
          "type": "address"
        },
        {
          "indexed": true,
          "internalType": "address",
          "name": "to",
          "type": "address"
        }
      ],
      "name": "ConsecutiveTransfer",
      "type": "event"
    },
    {
      "anonymous": false,
      "inputs": [
        {
          "indexed": false,
          "internalType": "uint256",
          "name": "tokenId",
          "type": "uint256"
        },
        {
          "indexed": false,
          "internalType": "string",
          "name": "uri",
          "type": "string"
        }
      ],
      "name": "NFTCreated",
      "type": "event"
    },
    {
      "anonymous": false,
      "inputs": [
        {
          "indexed": true,
          "internalType": "address",
          "name": "previousOwner",
          "type": "address"
        },
        {
          "indexed": true,
          "internalType": "address",
          "name": "newOwner",
          "type": "address"
        }
      ],
      "name": "OwnershipTransferred",
      "type": "event"
    },
    {
      "anonymous": false,
      "inputs": [
        {
          "indexed": true,
          "internalType": "address",
          "name": "from",
          "type": "address"
        },
        {
          "indexed": true,
          "internalType": "address",
          "name": "to",
          "type": "address"
        },
        {
          "indexed": true,
          "internalType": "uint256",
          "name": "tokenId",
          "type": "uint256"
        }
      ],
      "name": "Transfer",
      "type": "event"
    },
    {
      "inputs": [
        {
          "internalType": "address",
          "name": "to",
          "type": "address"
        },
        {
          "internalType": "uint256",
          "name": "tokenId",
          "type": "uint256"
        }
      ],
      "name": "approve",
      "outputs": [],
      "stateMutability": "payable",
      "type": "function"
    },
    {
      "inputs": [
        {
          "internalType": "address",
          "name": "owner",
          "type": "address"
        }
      ],
      "name": "balanceOf",
      "outputs": [
        {
          "internalType": "uint256",
          "name": "",
          "type": "uint256"
        }
      ],
      "stateMutability": "view",
      "type": "function"
    },
    {
      "inputs": [
        {
          "internalType": "string",
          "name": "_uri",
          "type": "string"
        }
      ],
      "name": "createNFT",
      "outputs": [
        {
          "internalType": "uint256",
          "name": "",
          "type": "uint256"
        }
      ],
      "stateMutability": "nonpayable",
      "type": "function"
    },
    {
      "inputs": [
        {
          "internalType": "uint256",
          "name": "tokenId",
          "type": "uint256"
        }
      ],
      "name": "getApproved",
      "outputs": [
        {
          "internalType": "address",
          "name": "",
          "type": "address"
        }
      ],
      "stateMutability": "view",
      "type": "function"
    },
    {
      "inputs": [],
      "name": "getDescription",
      "outputs": [
        {
          "internalType": "string",
          "name": "",
          "type": "string"
        }
      ],
      "stateMutability": "view",
      "type": "function"
    },
    {
      "inputs": [
        {
          "internalType": "string",
          "name": "name",
          "type": "string"
        },
        {
          "internalType": "string",
          "name": "symbol",
          "type": "string"
        },
        {
          "internalType": "string",
          "name": "desc",
          "type": "string"
        },
        {
          "internalType": "address",
          "name": "sender",
          "type": "address"
        },
        {
          "internalType": "address",
          "name": "marketPlace",
          "type": "address"
        }
      ],
      "name": "init",
      "outputs": [],
      "stateMutability": "nonpayable",
      "type": "function"
    },
    {
      "inputs": [
        {
          "internalType": "address",
          "name": "owner",
          "type": "address"
        },
        {
          "internalType": "address",
          "name": "operator",
          "type": "address"
        }
      ],
      "name": "isApprovedForAll",
      "outputs": [
        {
          "internalType": "bool",
          "name": "",
          "type": "bool"
        }
      ],
      "stateMutability": "view",
      "type": "function"
    },
    {
      "inputs": [],
      "name": "name",
      "outputs": [
        {
          "internalType": "string",
          "name": "",
          "type": "string"
        }
      ],
      "stateMutability": "view",
      "type": "function"
    },
    {
      "inputs": [],
      "name": "owner",
      "outputs": [
        {
          "internalType": "address",
          "name": "",
          "type": "address"
        }
      ],
      "stateMutability": "view",
      "type": "function"
    },
    {
      "inputs": [
        {
          "internalType": "uint256",
          "name": "tokenId",
          "type": "uint256"
        }
      ],
      "name": "ownerOf",
      "outputs": [
        {
          "internalType": "address",
          "name": "",
          "type": "address"
        }
      ],
      "stateMutability": "view",
      "type": "function"
    },
    {
      "inputs": [],
      "name": "renounceOwnership",
      "outputs": [],
      "stateMutability": "nonpayable",
      "type": "function"
    },
    {
      "inputs": [
        {
          "internalType": "address",
          "name": "from",
          "type": "address"
        },
        {
          "internalType": "address",
          "name": "to",
          "type": "address"
        },
        {
          "internalType": "uint256",
          "name": "tokenId",
          "type": "uint256"
        }
      ],
      "name": "safeTransferFrom",
      "outputs": [],
      "stateMutability": "payable",
      "type": "function"
    },
    {
      "inputs": [
        {
          "internalType": "address",
          "name": "from",
          "type": "address"
        },
        {
          "internalType": "address",
          "name": "to",
          "type": "address"
        },
        {
          "internalType": "uint256",
          "name": "tokenId",
          "type": "uint256"
        },
        {
          "internalType": "bytes",
          "name": "_data",
          "type": "bytes"
        }
      ],
      "name": "safeTransferFrom",
      "outputs": [],
      "stateMutability": "payable",
      "type": "function"
    },
    {
      "inputs": [
        {
          "internalType": "address",
          "name": "operator",
          "type": "address"
        },
        {
          "internalType": "bool",
          "name": "approved",
          "type": "bool"
        }
      ],
      "name": "setApprovalForAll",
      "outputs": [],
      "stateMutability": "nonpayable",
      "type": "function"
    },
    {
      "inputs": [
        {
          "internalType": "bytes4",
          "name": "interfaceId",
          "type": "bytes4"
        }
      ],
      "name": "supportsInterface",
      "outputs": [
        {
          "internalType": "bool",
          "name": "",
          "type": "bool"
        }
      ],
      "stateMutability": "view",
      "type": "function"
    },
    {
      "inputs": [],
      "name": "symbol",
      "outputs": [
        {
          "internalType": "string",
          "name": "",
          "type": "string"
        }
      ],
      "stateMutability": "view",
      "type": "function"
    },
    {
      "inputs": [
        {
          "internalType": "uint256",
          "name": "tokenId",
          "type": "uint256"
        }
      ],
      "name": "tokenURI",
      "outputs": [
        {
          "internalType": "string",
          "name": "",
          "type": "string"
        }
      ],
      "stateMutability": "view",
      "type": "function"
    },
    {
      "inputs": [
        {
          "internalType": "address",
          "name": "owner",
          "type": "address"
        }
      ],
      "name": "tokensOfOwner",
      "outputs": [
        {
          "internalType": "uint256[]",
          "name": "",
          "type": "uint256[]"
        }
      ],
      "stateMutability": "view",
      "type": "function"
    },
    {
      "inputs": [],
      "name": "totalSupply",
      "outputs": [
        {
          "internalType": "uint256",
          "name": "",
          "type": "uint256"
        }
      ],
      "stateMutability": "view",
      "type": "function"
    },
    {
      "inputs": [
        {
          "internalType": "address",
          "name": "from",
          "type": "address"
        },
        {
          "internalType": "address",
          "name": "to",
          "type": "address"
        },
        {
          "internalType": "uint256",
          "name": "tokenId",
          "type": "uint256"
        }
      ],
      "name": "transferFrom",
      "outputs": [],
      "stateMutability": "payable",
      "type": "function"
    },
    {
      "inputs": [
        {
          "internalType": "address",
          "name": "newOwner",
          "type": "address"
        }
      ],
      "name": "transferOwnership",
      "outputs": [],
      "stateMutability": "nonpayable",
      "type": "function"
    }
  ],
  "bytecode": "0x60806040523480156200001157600080fd5b506040518060400160405280600481526020017f6e616d65000000000000000000000000000000000000000000000000000000008152506040518060400160405280600681526020017f73796d626f6c000000000000000000000000000000000000000000000000000081525081600290816200008f91906200042d565b508060039081620000a191906200042d565b50620000b2620000e060201b60201c565b6000819055505050620000da620000ce620000e560201b60201c565b620000ed60201b60201c565b62000514565b600090565b600033905090565b6000600960009054906101000a900473ffffffffffffffffffffffffffffffffffffffff16905081600960006101000a81548173ffffffffffffffffffffffffffffffffffffffff021916908373ffffffffffffffffffffffffffffffffffffffff1602179055508173ffffffffffffffffffffffffffffffffffffffff168173ffffffffffffffffffffffffffffffffffffffff167f8be0079c531659141344cd1fd0a4f28419497f9722a3daafe3b4186f6b6457e060405160405180910390a35050565b600081519050919050565b7f4e487b7100000000000000000000000000000000000000000000000000000000600052604160045260246000fd5b7f4e487b7100000000000000000000000000000000000000000000000000000000600052602260045260246000fd5b600060028204905060018216806200023557607f821691505b6020821081036200024b576200024a620001ed565b5b50919050565b60008190508160005260206000209050919050565b60006020601f8301049050919050565b600082821b905092915050565b600060088302620002b57fffffffffffffffffffffffffffffffffffffffffffffffffffffffffffffffff8262000276565b620002c1868362000276565b95508019841693508086168417925050509392505050565b6000819050919050565b6000819050919050565b60006200030e620003086200030284620002d9565b620002e3565b620002d9565b9050919050565b6000819050919050565b6200032a83620002ed565b62000342620003398262000315565b84845462000283565b825550505050565b600090565b620003596200034a565b620003668184846200031f565b505050565b5b818110156200038e57620003826000826200034f565b6001810190506200036c565b5050565b601f821115620003dd57620003a78162000251565b620003b28462000266565b81016020851015620003c2578190505b620003da620003d18562000266565b8301826200036b565b50505b505050565b600082821c905092915050565b60006200040260001984600802620003e2565b1980831691505092915050565b60006200041d8383620003ef565b9150826002028217905092915050565b6200043882620001b3565b67ffffffffffffffff811115620004545762000453620001be565b5b6200046082546200021c565b6200046d82828562000392565b600060209050601f831160018114620004a5576000841562000490578287015190505b6200049c85826200040f565b8655506200050c565b601f198416620004b58662000251565b60005b82811015620004df57848901518255600182019150602085019450602081019050620004b8565b86831015620004ff5784890151620004fb601f891682620003ef565b8355505b6001600288020188555050505b505050505050565b612e0980620005246000396000f3fe60806040526004361061012a5760003560e01c8063715018a6116100ab578063a7eae21c1161006f578063a7eae21c146103cb578063b88d4fde146103f4578063c87b56dd14610410578063da2ed03e1461044d578063e985e9c51461048a578063f2fde38b146104c75761012a565b8063715018a6146102f85780638462151c1461030f5780638da5cb5b1461034c57806395d89b4114610377578063a22cb465146103a25761012a565b80631a092541116100f25780631a0925411461021b57806323b872dd1461024657806342842e0e146102625780636352211e1461027e57806370a08231146102bb5761012a565b806301ffc9a71461012f57806306fdde031461016c578063081812fc14610197578063095ea7b3146101d457806318160ddd146101f0575b600080fd5b34801561013b57600080fd5b5061015660048036038101906101519190611e28565b6104f0565b6040516101639190611e70565b60405180910390f35b34801561017857600080fd5b50610181610582565b60405161018e9190611f1b565b60405180910390f35b3480156101a357600080fd5b506101be60048036038101906101b99190611f73565b610614565b6040516101cb9190611fe1565b60405180910390f35b6101ee60048036038101906101e99190612028565b610693565b005b3480156101fc57600080fd5b506102056107d7565b6040516102129190612077565b60405180910390f35b34801561022757600080fd5b506102306107ee565b60405161023d9190611f1b565b60405180910390f35b610260600480360381019061025b9190612092565b610880565b005b61027c60048036038101906102779190612092565b610ba2565b005b34801561028a57600080fd5b506102a560048036038101906102a09190611f73565b610bc2565b6040516102b29190611fe1565b60405180910390f35b3480156102c757600080fd5b506102e260048036038101906102dd91906120e5565b610bd4565b6040516102ef9190612077565b60405180910390f35b34801561030457600080fd5b5061030d610c8c565b005b34801561031b57600080fd5b50610336600480360381019061033191906120e5565b610ca0565b60405161034391906121d0565b60405180910390f35b34801561035857600080fd5b50610361610de3565b60405161036e9190611fe1565b60405180910390f35b34801561038357600080fd5b5061038c610e0d565b6040516103999190611f1b565b60405180910390f35b3480156103ae57600080fd5b506103c960048036038101906103c4919061221e565b610e9f565b005b3480156103d757600080fd5b506103f260048036038101906103ed91906122c3565b610faa565b005b61040e600480360381019061040991906124cf565b61103c565b005b34801561041c57600080fd5b5061043760048036038101906104329190611f73565b6110af565b6040516104449190611f1b565b60405180910390f35b34801561045957600080fd5b50610474600480360381019061046f91906125f3565b6111c1565b6040516104819190612077565b60405180910390f35b34801561049657600080fd5b506104b160048036038101906104ac919061263c565b611267565b6040516104be9190611e70565b60405180910390f35b3480156104d357600080fd5b506104ee60048036038101906104e991906120e5565b6112fb565b005b60006301ffc9a760e01b827bffffffffffffffffffffffffffffffffffffffffffffffffffffffff1916148061054b57506380ac58cd60e01b827bffffffffffffffffffffffffffffffffffffffffffffffffffffffff1916145b8061057b5750635b5e139f60e01b827bffffffffffffffffffffffffffffffffffffffffffffffffffffffff1916145b9050919050565b606060028054610591906126ab565b80601f01602080910402602001604051908101604052809291908181526020018280546105bd906126ab565b801561060a5780601f106105df5761010080835404028352916020019161060a565b820191906000526020600020905b8154815290600101906020018083116105ed57829003601f168201915b5050505050905090565b600061061f8261137e565b610655576040517fcf4700e400000000000000000000000000000000000000000000000000000000815260040160405180910390fd5b6006600083815260200190815260200160002060000160009054906101000a900473ffffffffffffffffffffffffffffffffffffffff169050919050565b600061069e82610bc2565b90508073ffffffffffffffffffffffffffffffffffffffff166106bf6113dd565b73ffffffffffffffffffffffffffffffffffffffff1614610722576106eb816106e66113dd565b611267565b610721576040517fcfb3b94200000000000000000000000000000000000000000000000000000000815260040160405180910390fd5b5b826006600084815260200190815260200160002060000160006101000a81548173ffffffffffffffffffffffffffffffffffffffff021916908373ffffffffffffffffffffffffffffffffffffffff160217905550818373ffffffffffffffffffffffffffffffffffffffff168273ffffffffffffffffffffffffffffffffffffffff167f8c5be1e5ebec7d5bd14f71427d1e84f3dd0314c0f7b2291e5b200ac8c7c3b92560405160405180910390a4505050565b60006107e16113e5565b6001546000540303905090565b6060600c80546107fd906126ab565b80601f0160208091040260200160405190810160405280929190818152602001828054610829906126ab565b80156108765780601f1061084b57610100808354040283529160200191610876565b820191906000526020600020905b81548152906001019060200180831161085957829003601f168201915b5050505050905090565b600061088b826113ea565b90508373ffffffffffffffffffffffffffffffffffffffff168173ffffffffffffffffffffffffffffffffffffffff16146108f2576040517fa114810000000000000000000000000000000000000000000000000000000000815260040160405180910390fd5b6000806108fe846114b6565b91509150610914818761090f6113dd565b6114dd565b61096057610929866109246113dd565b611267565b61095f576040517f59c896be00000000000000000000000000000000000000000000000000000000815260040160405180910390fd5b5b600073ffffffffffffffffffffffffffffffffffffffff168573ffffffffffffffffffffffffffffffffffffffff16036109c6576040517fea553b3400000000000000000000000000000000000000000000000000000000815260040160405180910390fd5b6109d38686866001611521565b80156109de57600082555b600560008773ffffffffffffffffffffffffffffffffffffffff1673ffffffffffffffffffffffffffffffffffffffff168152602001908152602001600020600081546001900391905081905550600560008673ffffffffffffffffffffffffffffffffffffffff1673ffffffffffffffffffffffffffffffffffffffff1681526020019081526020016000206000815460010191905081905550610aac85610a88888887611527565b7c02000000000000000000000000000000000000000000000000000000001761154f565b600460008681526020019081526020016000208190555060007c0200000000000000000000000000000000000000000000000000000000841603610b325760006001850190506000600460008381526020019081526020016000205403610b30576000548114610b2f578360046000838152602001908152602001600020819055505b5b505b838573ffffffffffffffffffffffffffffffffffffffff168773ffffffffffffffffffffffffffffffffffffffff167fddf252ad1be2c89b69c2b068fc378daa952ba7f163c4a11628f55a4df523b3ef60405160405180910390a4610b9a868686600161157a565b505050505050565b610bbd8383836040518060200160405280600081525061103c565b505050565b6000610bcd826113ea565b9050919050565b60008073ffffffffffffffffffffffffffffffffffffffff168273ffffffffffffffffffffffffffffffffffffffff1603610c3b576040517f8f4eb60400000000000000000000000000000000000000000000000000000000815260040160405180910390fd5b67ffffffffffffffff600560008473ffffffffffffffffffffffffffffffffffffffff1673ffffffffffffffffffffffffffffffffffffffff16815260200190815260200160002054169050919050565b610c94611580565b610c9e60006115fe565b565b60606000806000610cb085610bd4565b905060008167ffffffffffffffff811115610cce57610ccd6123a4565b5b604051908082528060200260200182016040528015610cfc5781602001602082028036833780820191505090505b509050610d07611d6d565b6000610d116113e5565b90505b838614610dd557610d24816116c4565b91508160400151610dca57600073ffffffffffffffffffffffffffffffffffffffff16826000015173ffffffffffffffffffffffffffffffffffffffff1614610d6f57816000015194505b8773ffffffffffffffffffffffffffffffffffffffff168573ffffffffffffffffffffffffffffffffffffffff1603610dc95780838780600101985081518110610dbc57610dbb6126dc565b5b6020026020010181815250505b5b806001019050610d14565b508195505050505050919050565b6000600960009054906101000a900473ffffffffffffffffffffffffffffffffffffffff16905090565b606060038054610e1c906126ab565b80601f0160208091040260200160405190810160405280929190818152602001828054610e48906126ab565b8015610e955780601f10610e6a57610100808354040283529160200191610e95565b820191906000526020600020905b815481529060010190602001808311610e7857829003601f168201915b5050505050905090565b8060076000610eac6113dd565b73ffffffffffffffffffffffffffffffffffffffff1673ffffffffffffffffffffffffffffffffffffffff16815260200190815260200160002060008473ffffffffffffffffffffffffffffffffffffffff1673ffffffffffffffffffffffffffffffffffffffff16815260200190815260200160002060006101000a81548160ff0219169083151502179055508173ffffffffffffffffffffffffffffffffffffffff16610f596113dd565b73ffffffffffffffffffffffffffffffffffffffff167f17307eab39ab6107e8899845ad3d59bd9653f200f220920489ca2b5937696c3183604051610f9e9190611e70565b60405180910390a35050565b610fb2611580565b878760029182610fc39291906128c2565b50858560039182610fd59291906128c2565b508383600c9182610fe79291906128c2565b5080600b60006101000a81548173ffffffffffffffffffffffffffffffffffffffff021916908373ffffffffffffffffffffffffffffffffffffffff160217905550611032826112fb565b5050505050505050565b611047848484610880565b60008373ffffffffffffffffffffffffffffffffffffffff163b146110a957611072848484846116ef565b6110a8576040517fd1a57ed600000000000000000000000000000000000000000000000000000000815260040160405180910390fd5b5b50505050565b60606110ba8261183f565b60006008600084815260200190815260200160002080546110da906126ab565b80601f0160208091040260200160405190810160405280929190818152602001828054611106906126ab565b80156111535780601f1061112857610100808354040283529160200191611153565b820191906000526020600020905b81548152906001019060200180831161113657829003601f168201915b50505050509050600061116461188a565b905060008151036111795781925050506111bc565b6000825111156111ae5780826040516020016111969291906129ce565b604051602081830303815290604052925050506111bc565b6111b7846118a1565b925050505b919050565b60006111cb611580565b60006111d7600a61193f565b90506111e3600a61194d565b6111ee336001611963565b6111f88184611981565b611225600b60009054906101000a900473ffffffffffffffffffffffffffffffffffffffff166001610e9f565b7fe883eeefa7f620d513eac93479fc9f54ce03f9f4a72c0d818311a9d19556e87981846040516112569291906129f2565b60405180910390a180915050919050565b6000600760008473ffffffffffffffffffffffffffffffffffffffff1673ffffffffffffffffffffffffffffffffffffffff16815260200190815260200160002060008373ffffffffffffffffffffffffffffffffffffffff1673ffffffffffffffffffffffffffffffffffffffff16815260200190815260200160002060009054906101000a900460ff16905092915050565b611303611580565b600073ffffffffffffffffffffffffffffffffffffffff168173ffffffffffffffffffffffffffffffffffffffff1603611372576040517f08c379a000000000000000000000000000000000000000000000000000000000815260040161136990612a94565b60405180910390fd5b61137b816115fe565b50565b6000816113896113e5565b11158015611398575060005482105b80156113d6575060007c0100000000000000000000000000000000000000000000000000000000600460008581526020019081526020016000205416145b9050919050565b600033905090565b600090565b600080829050806113f96113e5565b1161147f5760005481101561147e5760006004600083815260200190815260200160002054905060007c010000000000000000000000000000000000000000000000000000000082160361147c575b60008103611472576004600083600190039350838152602001908152602001600020549050611448565b80925050506114b1565b505b5b6040517fdf2d9b4200000000000000000000000000000000000000000000000000000000815260040160405180910390fd5b919050565b60008060006006600085815260200190815260200160002090508092508254915050915091565b600073ffffffffffffffffffffffffffffffffffffffff8316925073ffffffffffffffffffffffffffffffffffffffff821691508382148383141790509392505050565b50505050565b60008060e883901c905060e861153e8686846119ee565b62ffffff16901b9150509392505050565b600073ffffffffffffffffffffffffffffffffffffffff83169250814260a01b178317905092915050565b50505050565b6115886119f7565b73ffffffffffffffffffffffffffffffffffffffff166115a6610de3565b73ffffffffffffffffffffffffffffffffffffffff16146115fc576040517f08c379a00000000000000000000000000000000000000000000000000000000081526004016115f390612b00565b60405180910390fd5b565b6000600960009054906101000a900473ffffffffffffffffffffffffffffffffffffffff16905081600960006101000a81548173ffffffffffffffffffffffffffffffffffffffff021916908373ffffffffffffffffffffffffffffffffffffffff1602179055508173ffffffffffffffffffffffffffffffffffffffff168173ffffffffffffffffffffffffffffffffffffffff167f8be0079c531659141344cd1fd0a4f28419497f9722a3daafe3b4186f6b6457e060405160405180910390a35050565b6116cc611d6d565b6116e860046000848152602001908152602001600020546119ff565b9050919050565b60008373ffffffffffffffffffffffffffffffffffffffff1663150b7a026117156113dd565b8786866040518563ffffffff1660e01b81526004016117379493929190612b75565b6020604051808303816000875af192505050801561177357506040513d601f19601f820116820180604052508101906117709190612bd6565b60015b6117ec573d80600081146117a3576040519150601f19603f3d011682016040523d82523d6000602084013e6117a8565b606091505b5060008151036117e4576040517fd1a57ed600000000000000000000000000000000000000000000000000000000815260040160405180910390fd5b805181602001fd5b63150b7a0260e01b7bffffffffffffffffffffffffffffffffffffffffffffffffffffffff1916817bffffffffffffffffffffffffffffffffffffffffffffffffffffffff191614915050949350505050565b6118488161137e565b611887576040517f08c379a000000000000000000000000000000000000000000000000000000000815260040161187e90612c4f565b60405180910390fd5b50565b606060405180602001604052806000815250905090565b60606118ac8261137e565b6118e2576040517fa14c4b5000000000000000000000000000000000000000000000000000000000815260040160405180910390fd5b60006118ec61188a565b9050600081510361190c5760405180602001604052806000815250611937565b8061191684611ab5565b6040516020016119279291906129ce565b6040516020818303038152906040525b915050919050565b600081600001549050919050565b6001816000016000828254019250508190555050565b61197d828260405180602001604052806000815250611b05565b5050565b61198a8261137e565b6119c9576040517f08c379a00000000000000000000000000000000000000000000000000000000081526004016119c090612ce1565b60405180910390fd5b806008600084815260200190815260200160002090816119e99190612d01565b505050565b60009392505050565b600033905090565b611a07611d6d565b81816000019073ffffffffffffffffffffffffffffffffffffffff16908173ffffffffffffffffffffffffffffffffffffffff168152505060a082901c816020019067ffffffffffffffff16908167ffffffffffffffff168152505060007c01000000000000000000000000000000000000000000000000000000008316141581604001901515908115158152505060e882901c816060019062ffffff16908162ffffff1681525050919050565b606060a060405101806040526020810391506000825281835b600115611af057600184039350600a81066030018453600a8104905080611ace575b50828103602084039350808452505050919050565b611b0f8383611ba2565b60008373ffffffffffffffffffffffffffffffffffffffff163b14611b9d57600080549050600083820390505b611b4f60008683806001019450866116ef565b611b85576040517fd1a57ed600000000000000000000000000000000000000000000000000000000815260040160405180910390fd5b818110611b3c578160005414611b9a57600080fd5b50505b505050565b60008054905060008203611be2576040517fb562e8dd00000000000000000000000000000000000000000000000000000000815260040160405180910390fd5b611bef6000848385611521565b600160406001901b178202600560008573ffffffffffffffffffffffffffffffffffffffff1673ffffffffffffffffffffffffffffffffffffffff16815260200190815260200160002060008282540192505081905550611c6683611c576000866000611527565b611c6085611d5d565b1761154f565b6004600083815260200190815260200160002081905550600080838301905073ffffffffffffffffffffffffffffffffffffffff85169150828260007fddf252ad1be2c89b69c2b068fc378daa952ba7f163c4a11628f55a4df523b3ef600080a4600183015b818114611d0757808360007fddf252ad1be2c89b69c2b068fc378daa952ba7f163c4a11628f55a4df523b3ef600080a4600181019050611ccc565b5060008203611d42576040517f2e07630000000000000000000000000000000000000000000000000000000000815260040160405180910390fd5b806000819055505050611d58600084838561157a565b505050565b60006001821460e11b9050919050565b6040518060800160405280600073ffffffffffffffffffffffffffffffffffffffff168152602001600067ffffffffffffffff168152602001600015158152602001600062ffffff1681525090565b6000604051905090565b600080fd5b600080fd5b60007fffffffff0000000000000000000000000000000000000000000000000000000082169050919050565b611e0581611dd0565b8114611e1057600080fd5b50565b600081359050611e2281611dfc565b92915050565b600060208284031215611e3e57611e3d611dc6565b5b6000611e4c84828501611e13565b91505092915050565b60008115159050919050565b611e6a81611e55565b82525050565b6000602082019050611e856000830184611e61565b92915050565b600081519050919050565b600082825260208201905092915050565b60005b83811015611ec5578082015181840152602081019050611eaa565b60008484015250505050565b6000601f19601f8301169050919050565b6000611eed82611e8b565b611ef78185611e96565b9350611f07818560208601611ea7565b611f1081611ed1565b840191505092915050565b60006020820190508181036000830152611f358184611ee2565b905092915050565b6000819050919050565b611f5081611f3d565b8114611f5b57600080fd5b50565b600081359050611f6d81611f47565b92915050565b600060208284031215611f8957611f88611dc6565b5b6000611f9784828501611f5e565b91505092915050565b600073ffffffffffffffffffffffffffffffffffffffff82169050919050565b6000611fcb82611fa0565b9050919050565b611fdb81611fc0565b82525050565b6000602082019050611ff66000830184611fd2565b92915050565b61200581611fc0565b811461201057600080fd5b50565b60008135905061202281611ffc565b92915050565b6000806040838503121561203f5761203e611dc6565b5b600061204d85828601612013565b925050602061205e85828601611f5e565b9150509250929050565b61207181611f3d565b82525050565b600060208201905061208c6000830184612068565b92915050565b6000806000606084860312156120ab576120aa611dc6565b5b60006120b986828701612013565b93505060206120ca86828701612013565b92505060406120db86828701611f5e565b9150509250925092565b6000602082840312156120fb576120fa611dc6565b5b600061210984828501612013565b91505092915050565b600081519050919050565b600082825260208201905092915050565b6000819050602082019050919050565b61214781611f3d565b82525050565b6000612159838361213e565b60208301905092915050565b6000602082019050919050565b600061217d82612112565b612187818561211d565b93506121928361212e565b8060005b838110156121c35781516121aa888261214d565b97506121b583612165565b925050600181019050612196565b5085935050505092915050565b600060208201905081810360008301526121ea8184612172565b905092915050565b6121fb81611e55565b811461220657600080fd5b50565b600081359050612218816121f2565b92915050565b6000806040838503121561223557612234611dc6565b5b600061224385828601612013565b925050602061225485828601612209565b9150509250929050565b600080fd5b600080fd5b600080fd5b60008083601f8401126122835761228261225e565b5b8235905067ffffffffffffffff8111156122a05761229f612263565b5b6020830191508360018202830111156122bc576122bb612268565b5b9250929050565b60008060008060008060008060a0898b0312156122e3576122e2611dc6565b5b600089013567ffffffffffffffff81111561230157612300611dcb565b5b61230d8b828c0161226d565b9850985050602089013567ffffffffffffffff8111156123305761232f611dcb565b5b61233c8b828c0161226d565b9650965050604089013567ffffffffffffffff81111561235f5761235e611dcb565b5b61236b8b828c0161226d565b9450945050606061237e8b828c01612013565b925050608061238f8b828c01612013565b9150509295985092959890939650565b600080fd5b7f4e487b7100000000000000000000000000000000000000000000000000000000600052604160045260246000fd5b6123dc82611ed1565b810181811067ffffffffffffffff821117156123fb576123fa6123a4565b5b80604052505050565b600061240e611dbc565b905061241a82826123d3565b919050565b600067ffffffffffffffff82111561243a576124396123a4565b5b61244382611ed1565b9050602081019050919050565b82818337600083830152505050565b600061247261246d8461241f565b612404565b90508281526020810184848401111561248e5761248d61239f565b5b612499848285612450565b509392505050565b600082601f8301126124b6576124b561225e565b5b81356124c684826020860161245f565b91505092915050565b600080600080608085870312156124e9576124e8611dc6565b5b60006124f787828801612013565b945050602061250887828801612013565b935050604061251987828801611f5e565b925050606085013567ffffffffffffffff81111561253a57612539611dcb565b5b612546878288016124a1565b91505092959194509250565b600067ffffffffffffffff82111561256d5761256c6123a4565b5b61257682611ed1565b9050602081019050919050565b600061259661259184612552565b612404565b9050828152602081018484840111156125b2576125b161239f565b5b6125bd848285612450565b509392505050565b600082601f8301126125da576125d961225e565b5b81356125ea848260208601612583565b91505092915050565b60006020828403121561260957612608611dc6565b5b600082013567ffffffffffffffff81111561262757612626611dcb565b5b612633848285016125c5565b91505092915050565b6000806040838503121561265357612652611dc6565b5b600061266185828601612013565b925050602061267285828601612013565b9150509250929050565b7f4e487b7100000000000000000000000000000000000000000000000000000000600052602260045260246000fd5b600060028204905060018216806126c357607f821691505b6020821081036126d6576126d561267c565b5b50919050565b7f4e487b7100000000000000000000000000000000000000000000000000000000600052603260045260246000fd5b600082905092915050565b60008190508160005260206000209050919050565b60006020601f8301049050919050565b600082821b905092915050565b6000600883026127787fffffffffffffffffffffffffffffffffffffffffffffffffffffffffffffffff8261273b565b612782868361273b565b95508019841693508086168417925050509392505050565b6000819050919050565b60006127bf6127ba6127b584611f3d565b61279a565b611f3d565b9050919050565b6000819050919050565b6127d9836127a4565b6127ed6127e5826127c6565b848454612748565b825550505050565b600090565b6128026127f5565b61280d8184846127d0565b505050565b5b81811015612831576128266000826127fa565b600181019050612813565b5050565b601f8211156128765761284781612716565b6128508461272b565b8101602085101561285f578190505b61287361286b8561272b565b830182612812565b50505b505050565b600082821c905092915050565b60006128996000198460080261287b565b1980831691505092915050565b60006128b28383612888565b9150826002028217905092915050565b6128cc838361270b565b67ffffffffffffffff8111156128e5576128e46123a4565b5b6128ef82546126ab565b6128fa828285612835565b6000601f8311600181146129295760008415612917578287013590505b61292185826128a6565b865550612989565b601f19841661293786612716565b60005b8281101561295f5784890135825560018201915060208501945060208101905061293a565b8683101561297c5784890135612978601f891682612888565b8355505b6001600288020188555050505b50505050505050565b600081905092915050565b60006129a882611e8b565b6129b28185612992565b93506129c2818560208601611ea7565b80840191505092915050565b60006129da828561299d565b91506129e6828461299d565b91508190509392505050565b6000604082019050612a076000830185612068565b8181036020830152612a198184611ee2565b90509392505050565b7f4f776e61626c653a206e6577206f776e657220697320746865207a65726f206160008201527f6464726573730000000000000000000000000000000000000000000000000000602082015250565b6000612a7e602683611e96565b9150612a8982612a22565b604082019050919050565b60006020820190508181036000830152612aad81612a71565b9050919050565b7f4f776e61626c653a2063616c6c6572206973206e6f7420746865206f776e6572600082015250565b6000612aea602083611e96565b9150612af582612ab4565b602082019050919050565b60006020820190508181036000830152612b1981612add565b9050919050565b600081519050919050565b600082825260208201905092915050565b6000612b4782612b20565b612b518185612b2b565b9350612b61818560208601611ea7565b612b6a81611ed1565b840191505092915050565b6000608082019050612b8a6000830187611fd2565b612b976020830186611fd2565b612ba46040830185612068565b8181036060830152612bb68184612b3c565b905095945050505050565b600081519050612bd081611dfc565b92915050565b600060208284031215612bec57612beb611dc6565b5b6000612bfa84828501612bc1565b91505092915050565b7f4552433732313a20696e76616c696420746f6b656e2049440000000000000000600082015250565b6000612c39601883611e96565b9150612c4482612c03565b602082019050919050565b60006020820190508181036000830152612c6881612c2c565b9050919050565b7f45524337323155524953746f726167653a2055524920736574206f66206e6f6e60008201527f6578697374656e7420746f6b656e000000000000000000000000000000000000602082015250565b6000612ccb602e83611e96565b9150612cd682612c6f565b604082019050919050565b60006020820190508181036000830152612cfa81612cbe565b9050919050565b612d0a82611e8b565b67ffffffffffffffff811115612d2357612d226123a4565b5b612d2d82546126ab565b612d38828285612835565b600060209050601f831160018114612d6b5760008415612d59578287015190505b612d6385826128a6565b865550612dcb565b601f198416612d7986612716565b60005b82811015612da157848901518255600182019150602085019450602081019050612d7c565b86831015612dbe5784890151612dba601f891682612888565b8355505b6001600288020188555050505b50505050505056fea2646970667358221220ff162da9c8f9aead4d6c587c9589b663a16d0c04ec877e6179dfa3ab844eb88364736f6c63430008110033",
  "linkReferences": {},
  "deployedLinkReferences": {}
}