{
  "_format": "hh-sol-artifact-1",
  "contractName": "NFTMarketPlace",
  "sourceName": "contracts/NFTMarketPlace.sol",
  "abi": [
    {
      "inputs": [],
      "stateMutability": "nonpayable",
      "type": "constructor"
    },
    {
      "anonymous": false,
      "inputs": [
        {
          "indexed": false,
          "internalType": "uint256",
          "name": "tokenId",
          "type": "uint256"
        },
        {
          "indexed": false,
          "internalType": "address",
          "name": "to",
          "type": "address"
        }
      ],
      "name": "NFTCancel",
      "type": "event"
    },
    {
      "anonymous": false,
      "inputs": [
        {
          "indexed": true,
          "internalType": "address",
          "name": "addr",
          "type": "address"
        }
      ],
      "name": "NFTCollectionAddr",
      "type": "event"
    },
    {
      "anonymous": false,
      "inputs": [
        {
          "indexed": false,
          "internalType": "string",
          "name": "name",
          "type": "string"
        },
        {
          "indexed": false,
          "internalType": "string",
          "name": "symbol",
          "type": "string"
        }
      ],
      "name": "NFTCollectionCreated",
      "type": "event"
    },
    {
      "anonymous": false,
      "inputs": [
        {
          "indexed": false,
          "internalType": "uint256",
          "name": "tokenId",
          "type": "uint256"
        },
        {
          "indexed": false,
          "internalType": "uint256",
          "name": "price",
          "type": "uint256"
        }
      ],
      "name": "NFTListed",
      "type": "event"
    },
    {
      "anonymous": false,
      "inputs": [
        {
          "indexed": false,
          "internalType": "uint256",
          "name": "tokenId",
          "type": "uint256"
        },
        {
          "indexed": false,
          "internalType": "address",
          "name": "to",
          "type": "address"
        }
      ],
      "name": "NFTTransfer",
      "type": "event"
    },
    {
      "anonymous": false,
      "inputs": [
        {
          "indexed": true,
          "internalType": "address",
          "name": "previousOwner",
          "type": "address"
        },
        {
          "indexed": true,
          "internalType": "address",
          "name": "newOwner",
          "type": "address"
        }
      ],
      "name": "OwnershipTransferred",
      "type": "event"
    },
    {
      "anonymous": false,
      "inputs": [
        {
          "indexed": false,
          "internalType": "address",
          "name": "owner",
          "type": "address"
        },
        {
          "indexed": false,
          "internalType": "uint256",
          "name": "amount",
          "type": "uint256"
        }
      ],
      "name": "Withdraw",
      "type": "event"
    },
    {
      "inputs": [
        {
          "internalType": "uint256",
          "name": "_tokenId",
          "type": "uint256"
        },
        {
          "internalType": "address",
          "name": "_nftCollection",
          "type": "address"
        }
      ],
      "name": "buyNFT",
      "outputs": [],
      "stateMutability": "payable",
      "type": "function"
    },
    {
      "inputs": [
        {
          "internalType": "uint256",
          "name": "_tokenId",
          "type": "uint256"
        },
        {
          "internalType": "address",
          "name": "_nftCollection",
          "type": "address"
        }
      ],
      "name": "cancelListing",
      "outputs": [],
      "stateMutability": "nonpayable",
      "type": "function"
    },
    {
      "inputs": [
        {
          "internalType": "address",
          "name": "_collectionAddr",
          "type": "address"
        },
        {
          "internalType": "uint256",
          "name": "_tokenId",
          "type": "uint256"
        }
      ],
      "name": "getListings",
      "outputs": [
        {
          "components": [
            {
              "internalType": "uint256",
              "name": "price",
              "type": "uint256"
            },
            {
              "internalType": "address",
              "name": "seller",
              "type": "address"
            },
            {
              "internalType": "address",
              "name": "nftCollection",
              "type": "address"
            }
          ],
          "internalType": "struct NFTMarketPlace.NFTListing",
          "name": "",
          "type": "tuple"
        }
      ],
      "stateMutability": "view",
      "type": "function"
    },
    {
      "inputs": [
        {
          "internalType": "uint256",
          "name": "_tokenId",
          "type": "uint256"
        },
        {
          "internalType": "uint256",
          "name": "_price",
          "type": "uint256"
        },
        {
          "internalType": "address",
          "name": "_nftCollection",
          "type": "address"
        }
      ],
      "name": "listNFT",
      "outputs": [],
      "stateMutability": "nonpayable",
      "type": "function"
    },
    {
      "inputs": [],
      "name": "owner",
      "outputs": [
        {
          "internalType": "address",
          "name": "",
          "type": "address"
        }
      ],
      "stateMutability": "view",
      "type": "function"
    },
    {
      "inputs": [],
      "name": "renounceOwnership",
      "outputs": [],
      "stateMutability": "nonpayable",
      "type": "function"
    },
    {
      "inputs": [
        {
          "internalType": "uint256",
          "name": "_tokenId",
          "type": "uint256"
        },
        {
          "internalType": "address",
          "name": "_nftCollection",
          "type": "address"
        },
        {
          "internalType": "address",
          "name": "_to",
          "type": "address"
        }
      ],
      "name": "tranfert",
      "outputs": [],
      "stateMutability": "nonpayable",
      "type": "function"
    },
    {
      "inputs": [
        {
          "internalType": "address",
          "name": "newOwner",
          "type": "address"
        }
      ],
      "name": "transferOwnership",
      "outputs": [],
      "stateMutability": "nonpayable",
      "type": "function"
    },
    {
      "inputs": [],
      "name": "withdraw",
      "outputs": [],
      "stateMutability": "nonpayable",
      "type": "function"
    }
  ],
  "bytecode": "0x608060405234801561001057600080fd5b5061002d61002261003260201b60201c565b61003a60201b60201c565b6100fe565b600033905090565b60008060009054906101000a900473ffffffffffffffffffffffffffffffffffffffff169050816000806101000a81548173ffffffffffffffffffffffffffffffffffffffff021916908373ffffffffffffffffffffffffffffffffffffffff1602179055508173ffffffffffffffffffffffffffffffffffffffff168173ffffffffffffffffffffffffffffffffffffffff167f8be0079c531659141344cd1fd0a4f28419497f9722a3daafe3b4186f6b6457e060405160405180910390a35050565b611a858061010d6000396000f3fe6080604052600436106100865760003560e01c80638da5cb5b116100595780638da5cb5b1461010b578063c6bd41e414610136578063d8db47a71461015f578063e3278e791461017b578063f2fde38b146101b857610086565b806302998cf31461008b5780633ccfd60b146100b457806360101d3a146100cb578063715018a6146100f4575b600080fd5b34801561009757600080fd5b506100b260048036038101906100ad9190611265565b6101e1565b005b3480156100c057600080fd5b506100c961047f565b005b3480156100d757600080fd5b506100f260048036038101906100ed91906112b8565b61058d565b005b34801561010057600080fd5b5061010961081c565b005b34801561011757600080fd5b50610120610830565b60405161012d9190611307565b60405180910390f35b34801561014257600080fd5b5061015d60048036038101906101589190611322565b610859565b005b610179600480360381019061017491906112b8565b6109c2565b005b34801561018757600080fd5b506101a2600480360381019061019d9190611375565b610da1565b6040516101af9190611415565b60405180910390f35b3480156101c457600080fd5b506101df60048036038101906101da9190611430565b610ec2565b005b80833373ffffffffffffffffffffffffffffffffffffffff168273ffffffffffffffffffffffffffffffffffffffff16636352211e836040518263ffffffff1660e01b8152600401610233919061146c565b602060405180830381865afa158015610250573d6000803e3d6000fd5b505050506040513d601f19601f82011682018060405250810190610274919061149c565b73ffffffffffffffffffffffffffffffffffffffff16146102ca576040517f08c379a00000000000000000000000000000000000000000000000000000000081526004016102c19061154c565b60405180910390fd5b6000841161030d576040517f08c379a0000000000000000000000000000000000000000000000000000000008152600401610304906115b8565b60405180910390fd5b60405180606001604052808581526020013373ffffffffffffffffffffffffffffffffffffffff1681526020018473ffffffffffffffffffffffffffffffffffffffff16815250600160008573ffffffffffffffffffffffffffffffffffffffff1673ffffffffffffffffffffffffffffffffffffffff16815260200190815260200160002060008781526020019081526020016000206000820151816000015560208201518160010160006101000a81548173ffffffffffffffffffffffffffffffffffffffff021916908373ffffffffffffffffffffffffffffffffffffffff16021790555060408201518160020160006101000a81548173ffffffffffffffffffffffffffffffffffffffff021916908373ffffffffffffffffffffffffffffffffffffffff1602179055509050507fa6cd73580a273eec6c1026108f6b63479fbaef5356dde4ff43e4b38dd187485f85856040516104709291906115d8565b60405180910390a15050505050565b610487610f45565b6000479050600081116104cf576040517f08c379a00000000000000000000000000000000000000000000000000000000081526004016104c69061164d565b60405180910390fd5b60006104d9610830565b73ffffffffffffffffffffffffffffffffffffffff16826040516104fc9061169e565b60006040518083038185875af1925050503d8060008114610539576040519150601f19603f3d011682016040523d82523d6000602084013e61053e565b606091505b505090508015610589577f884edad9ce6fa2440d8a54cc123490eb96d2768479d49ff9c7366125a9424364610571610830565b836040516105809291906116b3565b60405180910390a15b5050565b80823373ffffffffffffffffffffffffffffffffffffffff168273ffffffffffffffffffffffffffffffffffffffff16636352211e836040518263ffffffff1660e01b81526004016105df919061146c565b602060405180830381865afa1580156105fc573d6000803e3d6000fd5b505050506040513d601f19601f82011682018060405250810190610620919061149c565b73ffffffffffffffffffffffffffffffffffffffff1614610676576040517f08c379a000000000000000000000000000000000000000000000000000000000815260040161066d9061154c565b60405180910390fd5b6000600160008573ffffffffffffffffffffffffffffffffffffffff1673ffffffffffffffffffffffffffffffffffffffff1681526020019081526020016000206000868152602001908152602001600020604051806060016040529081600082015481526020016001820160009054906101000a900473ffffffffffffffffffffffffffffffffffffffff1673ffffffffffffffffffffffffffffffffffffffff1673ffffffffffffffffffffffffffffffffffffffff1681526020016002820160009054906101000a900473ffffffffffffffffffffffffffffffffffffffff1673ffffffffffffffffffffffffffffffffffffffff1673ffffffffffffffffffffffffffffffffffffffff1681525050905060008160000151116107d2576040517f08c379a00000000000000000000000000000000000000000000000000000000081526004016107c990611728565b60405180910390fd5b6107dc8585610fc3565b7f94bfba22a3ac4a317dcb49320b02b785b485ab65a09eb6e68c2322f4f750439c853360405161080d929190611748565b60405180910390a15050505050565b610824610f45565b61082e60006110b3565b565b60008060009054906101000a900473ffffffffffffffffffffffffffffffffffffffff16905090565b81833373ffffffffffffffffffffffffffffffffffffffff168273ffffffffffffffffffffffffffffffffffffffff16636352211e836040518263ffffffff1660e01b81526004016108ab919061146c565b602060405180830381865afa1580156108c8573d6000803e3d6000fd5b505050506040513d601f19601f820116820180604052508101906108ec919061149c565b73ffffffffffffffffffffffffffffffffffffffff1614610942576040517f08c379a00000000000000000000000000000000000000000000000000000000081526004016109399061154c565b60405180910390fd5b8373ffffffffffffffffffffffffffffffffffffffff166342842e0e3385886040518463ffffffff1660e01b815260040161097f93929190611771565b600060405180830381600087803b15801561099957600080fd5b505af11580156109ad573d6000803e3d6000fd5b505050506109bb8585610fc3565b5050505050565b6000600160008373ffffffffffffffffffffffffffffffffffffffff1673ffffffffffffffffffffffffffffffffffffffff1681526020019081526020016000206000848152602001908152602001600020604051806060016040529081600082015481526020016001820160009054906101000a900473ffffffffffffffffffffffffffffffffffffffff1673ffffffffffffffffffffffffffffffffffffffff1673ffffffffffffffffffffffffffffffffffffffff1681526020016002820160009054906101000a900473ffffffffffffffffffffffffffffffffffffffff1673ffffffffffffffffffffffffffffffffffffffff1673ffffffffffffffffffffffffffffffffffffffff168152505090506000816000015111610b1e576040517f08c379a0000000000000000000000000000000000000000000000000000000008152600401610b1590611728565b60405180910390fd5b3373ffffffffffffffffffffffffffffffffffffffff16816020015173ffffffffffffffffffffffffffffffffffffffff1603610b90576040517f08c379a0000000000000000000000000000000000000000000000000000000008152600401610b87906117f4565b60405180910390fd5b8060000151341015610bd7576040517f08c379a0000000000000000000000000000000000000000000000000000000008152600401610bce90611860565b60405180910390fd5b60008273ffffffffffffffffffffffffffffffffffffffff16636352211e856040518263ffffffff1660e01b8152600401610c12919061146c565b602060405180830381865afa158015610c2f573d6000803e3d6000fd5b505050506040513d601f19601f82011682018060405250810190610c53919061149c565b90508273ffffffffffffffffffffffffffffffffffffffff166323b872dd8233876040518463ffffffff1660e01b8152600401610c9293929190611771565b600060405180830381600087803b158015610cac57600080fd5b505af1158015610cc0573d6000803e3d6000fd5b505050506000826020015173ffffffffffffffffffffffffffffffffffffffff16606460628560000151610cf491906118af565b610cfe9190611920565b604051610d0a9061169e565b60006040518083038185875af1925050503d8060008114610d47576040519150601f19603f3d011682016040523d82523d6000602084013e610d4c565b606091505b505090508015610d9a57610d608585610fc3565b7fd00b065c8b446c171fc9c9b30461b844a66e2172f8d541f2e0002102f1831d7b8533604051610d91929190611748565b60405180910390a15b5050505050565b610da961117f565b600160008473ffffffffffffffffffffffffffffffffffffffff1673ffffffffffffffffffffffffffffffffffffffff1681526020019081526020016000206000838152602001908152602001600020604051806060016040529081600082015481526020016001820160009054906101000a900473ffffffffffffffffffffffffffffffffffffffff1673ffffffffffffffffffffffffffffffffffffffff1673ffffffffffffffffffffffffffffffffffffffff1681526020016002820160009054906101000a900473ffffffffffffffffffffffffffffffffffffffff1673ffffffffffffffffffffffffffffffffffffffff1673ffffffffffffffffffffffffffffffffffffffff1681525050905092915050565b610eca610f45565b600073ffffffffffffffffffffffffffffffffffffffff168173ffffffffffffffffffffffffffffffffffffffff1603610f39576040517f08c379a0000000000000000000000000000000000000000000000000000000008152600401610f30906119c3565b60405180910390fd5b610f42816110b3565b50565b610f4d611177565b73ffffffffffffffffffffffffffffffffffffffff16610f6b610830565b73ffffffffffffffffffffffffffffffffffffffff1614610fc1576040517f08c379a0000000000000000000000000000000000000000000000000000000008152600401610fb890611a2f565b60405180910390fd5b565b6000600160008373ffffffffffffffffffffffffffffffffffffffff1673ffffffffffffffffffffffffffffffffffffffff1681526020019081526020016000206000848152602001908152602001600020600001819055506000600160008373ffffffffffffffffffffffffffffffffffffffff1673ffffffffffffffffffffffffffffffffffffffff168152602001908152602001600020600084815260200190815260200160002060010160006101000a81548173ffffffffffffffffffffffffffffffffffffffff021916908373ffffffffffffffffffffffffffffffffffffffff1602179055505050565b60008060009054906101000a900473ffffffffffffffffffffffffffffffffffffffff169050816000806101000a81548173ffffffffffffffffffffffffffffffffffffffff021916908373ffffffffffffffffffffffffffffffffffffffff1602179055508173ffffffffffffffffffffffffffffffffffffffff168173ffffffffffffffffffffffffffffffffffffffff167f8be0079c531659141344cd1fd0a4f28419497f9722a3daafe3b4186f6b6457e060405160405180910390a35050565b600033905090565b604051806060016040528060008152602001600073ffffffffffffffffffffffffffffffffffffffff168152602001600073ffffffffffffffffffffffffffffffffffffffff1681525090565b600080fd5b6000819050919050565b6111e4816111d1565b81146111ef57600080fd5b50565b600081359050611201816111db565b92915050565b600073ffffffffffffffffffffffffffffffffffffffff82169050919050565b600061123282611207565b9050919050565b61124281611227565b811461124d57600080fd5b50565b60008135905061125f81611239565b92915050565b60008060006060848603121561127e5761127d6111cc565b5b600061128c868287016111f2565b935050602061129d868287016111f2565b92505060406112ae86828701611250565b9150509250925092565b600080604083850312156112cf576112ce6111cc565b5b60006112dd858286016111f2565b92505060206112ee85828601611250565b9150509250929050565b61130181611227565b82525050565b600060208201905061131c60008301846112f8565b92915050565b60008060006060848603121561133b5761133a6111cc565b5b6000611349868287016111f2565b935050602061135a86828701611250565b925050604061136b86828701611250565b9150509250925092565b6000806040838503121561138c5761138b6111cc565b5b600061139a85828601611250565b92505060206113ab858286016111f2565b9150509250929050565b6113be816111d1565b82525050565b6113cd81611227565b82525050565b6060820160008201516113e960008501826113b5565b5060208201516113fc60208501826113c4565b50604082015161140f60408501826113c4565b50505050565b600060608201905061142a60008301846113d3565b92915050565b600060208284031215611446576114456111cc565b5b600061145484828501611250565b91505092915050565b611466816111d1565b82525050565b6000602082019050611481600083018461145d565b92915050565b60008151905061149681611239565b92915050565b6000602082840312156114b2576114b16111cc565b5b60006114c084828501611487565b91505092915050565b600082825260208201905092915050565b7f596f7520617265206e6f7420746865206f776e6572206f662074686520746f6b60008201527f656e2e0000000000000000000000000000000000000000000000000000000000602082015250565b60006115366023836114c9565b9150611541826114da565b604082019050919050565b6000602082019050818103600083015261156581611529565b9050919050565b7f5072696365206d7573742062652067726561746572207468616e20302e000000600082015250565b60006115a2601d836114c9565b91506115ad8261156c565b602082019050919050565b600060208201905081810360008301526115d181611595565b9050919050565b60006040820190506115ed600083018561145d565b6115fa602083018461145d565b9392505050565b7f456d7074792062616c616e636500000000000000000000000000000000000000600082015250565b6000611637600d836114c9565b915061164282611601565b602082019050919050565b600060208201905081810360008301526116668161162a565b9050919050565b600081905092915050565b50565b600061168860008361166d565b915061169382611678565b600082019050919050565b60006116a98261167b565b9150819050919050565b60006040820190506116c860008301856112f8565b6116d5602083018461145d565b9392505050565b7f4e4654206e6f74206c697374656420666f722073616c65210000000000000000600082015250565b60006117126018836114c9565b915061171d826116dc565b602082019050919050565b6000602082019050818103600083015261174181611705565b9050919050565b600060408201905061175d600083018561145d565b61176a60208301846112f8565b9392505050565b600060608201905061178660008301866112f8565b61179360208301856112f8565b6117a0604083018461145d565b949350505050565b7f596f752063616e27742062757920796f7572204e465400000000000000000000600082015250565b60006117de6016836114c9565b91506117e9826117a8565b602082019050919050565b6000602082019050818103600083015261180d816117d1565b9050919050565b7f596f757220707269636520697320696e636f7272656374210000000000000000600082015250565b600061184a6018836114c9565b915061185582611814565b602082019050919050565b600060208201905081810360008301526118798161183d565b9050919050565b7f4e487b7100000000000000000000000000000000000000000000000000000000600052601160045260246000fd5b60006118ba826111d1565b91506118c5836111d1565b92508282026118d3816111d1565b915082820484148315176118ea576118e9611880565b5b5092915050565b7f4e487b7100000000000000000000000000000000000000000000000000000000600052601260045260246000fd5b600061192b826111d1565b9150611936836111d1565b925082611946576119456118f1565b5b828204905092915050565b7f4f776e61626c653a206e6577206f776e657220697320746865207a65726f206160008201527f6464726573730000000000000000000000000000000000000000000000000000602082015250565b60006119ad6026836114c9565b91506119b882611951565b604082019050919050565b600060208201905081810360008301526119dc816119a0565b9050919050565b7f4f776e61626c653a2063616c6c6572206973206e6f7420746865206f776e6572600082015250565b6000611a196020836114c9565b9150611a24826119e3565b602082019050919050565b60006020820190508181036000830152611a4881611a0c565b905091905056fea2646970667358221220bcb55b8ee71027087c695e7816aaab191671a714ac5644a00864d4aa96e4a34c64736f6c63430008110033",
  "linkReferences": {},
  "deployedLinkReferences": {}
}