{
  "_format": "hh-sol-artifact-1",
  "contractName": "NFTMarketPlace",
  "sourceName": "contracts/NFTMarketPlace.sol",
  "abi": [
    {
      "anonymous": false,
      "inputs": [
        {
          "indexed": false,
          "internalType": "uint256",
          "name": "tokenId",
          "type": "uint256"
        },
        {
          "indexed": false,
          "internalType": "address",
          "name": "to",
          "type": "address"
        }
      ],
      "name": "NFTCancel",
      "type": "event"
    },
    {
      "anonymous": false,
      "inputs": [
        {
          "indexed": true,
          "internalType": "address",
          "name": "addr",
          "type": "address"
        }
      ],
      "name": "NFTCollectionAddr",
      "type": "event"
    },
    {
      "anonymous": false,
      "inputs": [
        {
          "indexed": false,
          "internalType": "string",
          "name": "name",
          "type": "string"
        },
        {
          "indexed": false,
          "internalType": "string",
          "name": "symbol",
          "type": "string"
        }
      ],
      "name": "NFTCollectionCreated",
      "type": "event"
    },
    {
      "anonymous": false,
      "inputs": [
        {
          "indexed": false,
          "internalType": "uint256",
          "name": "tokenId",
          "type": "uint256"
        },
        {
          "indexed": false,
          "internalType": "uint256",
          "name": "price",
          "type": "uint256"
        }
      ],
      "name": "NFTListed",
      "type": "event"
    },
    {
      "anonymous": false,
      "inputs": [
        {
          "indexed": false,
          "internalType": "uint256",
          "name": "tokenId",
          "type": "uint256"
        },
        {
          "indexed": false,
          "internalType": "address",
          "name": "to",
          "type": "address"
        }
      ],
      "name": "NFTTransfer",
      "type": "event"
    },
    {
      "anonymous": false,
      "inputs": [
        {
          "indexed": true,
          "internalType": "address",
          "name": "previousOwner",
          "type": "address"
        },
        {
          "indexed": true,
          "internalType": "address",
          "name": "newOwner",
          "type": "address"
        }
      ],
      "name": "OwnershipTransferred",
      "type": "event"
    },
    {
      "anonymous": false,
      "inputs": [
        {
          "indexed": false,
          "internalType": "address",
          "name": "owner",
          "type": "address"
        },
        {
          "indexed": false,
          "internalType": "uint256",
          "name": "amount",
          "type": "uint256"
        }
      ],
      "name": "Withdraw",
      "type": "event"
    },
    {
      "inputs": [
        {
          "internalType": "uint256",
          "name": "_tokenId",
          "type": "uint256"
        },
        {
          "internalType": "address",
          "name": "_nftCollection",
          "type": "address"
        }
      ],
      "name": "buyNFT",
      "outputs": [],
      "stateMutability": "payable",
      "type": "function"
    },
    {
      "inputs": [
        {
          "internalType": "uint256",
          "name": "_tokenId",
          "type": "uint256"
        },
        {
          "internalType": "address",
          "name": "_nftCollection",
          "type": "address"
        }
      ],
      "name": "cancelListing",
      "outputs": [],
      "stateMutability": "nonpayable",
      "type": "function"
    },
    {
      "inputs": [
        {
          "internalType": "address",
          "name": "_collectionAddr",
          "type": "address"
        },
        {
          "internalType": "uint256",
          "name": "_tokenId",
          "type": "uint256"
        }
      ],
      "name": "getListings",
      "outputs": [
        {
          "components": [
            {
              "internalType": "uint256",
              "name": "price",
              "type": "uint256"
            },
            {
              "internalType": "address",
              "name": "seller",
              "type": "address"
            },
            {
              "internalType": "address",
              "name": "nftCollection",
              "type": "address"
            }
          ],
          "internalType": "struct NFTMarketPlace.NFTListing",
          "name": "",
          "type": "tuple"
        }
      ],
      "stateMutability": "view",
      "type": "function"
    },
    {
      "inputs": [
        {
          "internalType": "uint256",
          "name": "_tokenId",
          "type": "uint256"
        },
        {
          "internalType": "uint256",
          "name": "_price",
          "type": "uint256"
        },
        {
          "internalType": "address",
          "name": "_nftCollection",
          "type": "address"
        }
      ],
      "name": "listNFT",
      "outputs": [],
      "stateMutability": "nonpayable",
      "type": "function"
    },
    {
      "inputs": [],
      "name": "owner",
      "outputs": [
        {
          "internalType": "address",
          "name": "",
          "type": "address"
        }
      ],
      "stateMutability": "view",
      "type": "function"
    },
    {
      "inputs": [],
      "name": "renounceOwnership",
      "outputs": [],
      "stateMutability": "nonpayable",
      "type": "function"
    },
    {
      "inputs": [
        {
          "internalType": "uint256",
          "name": "_tokenId",
          "type": "uint256"
        },
        {
          "internalType": "address",
          "name": "_nftCollection",
          "type": "address"
        },
        {
          "internalType": "address",
          "name": "_to",
          "type": "address"
        }
      ],
      "name": "tranfert",
      "outputs": [],
      "stateMutability": "nonpayable",
      "type": "function"
    },
    {
      "inputs": [
        {
          "internalType": "address",
          "name": "newOwner",
          "type": "address"
        }
      ],
      "name": "transferOwnership",
      "outputs": [],
      "stateMutability": "nonpayable",
      "type": "function"
    },
    {
      "inputs": [],
      "name": "withdraw",
      "outputs": [],
      "stateMutability": "nonpayable",
      "type": "function"
    }
  ],
  "bytecode": "0x608060405234801561001057600080fd5b5061002d61002261003260201b60201c565b61003a60201b60201c565b6100fe565b600033905090565b60008060009054906101000a900473ffffffffffffffffffffffffffffffffffffffff169050816000806101000a81548173ffffffffffffffffffffffffffffffffffffffff021916908373ffffffffffffffffffffffffffffffffffffffff1602179055508173ffffffffffffffffffffffffffffffffffffffff168173ffffffffffffffffffffffffffffffffffffffff167f8be0079c531659141344cd1fd0a4f28419497f9722a3daafe3b4186f6b6457e060405160405180910390a35050565b611b568061010d6000396000f3fe6080604052600436106100865760003560e01c80638da5cb5b116100595780638da5cb5b1461010b578063c6bd41e414610136578063d8db47a71461015f578063e3278e791461017b578063f2fde38b146101b857610086565b806302998cf31461008b5780633ccfd60b146100b457806360101d3a146100cb578063715018a6146100f4575b600080fd5b34801561009757600080fd5b506100b260048036038101906100ad91906112a4565b6101e1565b005b3480156100c057600080fd5b506100c961047f565b005b3480156100d757600080fd5b506100f260048036038101906100ed91906112f7565b61058d565b005b34801561010057600080fd5b5061010961081c565b005b34801561011757600080fd5b50610120610830565b60405161012d9190611346565b60405180910390f35b34801561014257600080fd5b5061015d60048036038101906101589190611361565b610859565b005b610179600480360381019061017491906112f7565b6109c2565b005b34801561018757600080fd5b506101a2600480360381019061019d91906113b4565b610de0565b6040516101af9190611454565b60405180910390f35b3480156101c457600080fd5b506101df60048036038101906101da919061146f565b610f01565b005b80833373ffffffffffffffffffffffffffffffffffffffff168273ffffffffffffffffffffffffffffffffffffffff16636352211e836040518263ffffffff1660e01b815260040161023391906114ab565b602060405180830381865afa158015610250573d6000803e3d6000fd5b505050506040513d601f19601f8201168201806040525081019061027491906114db565b73ffffffffffffffffffffffffffffffffffffffff16146102ca576040517f08c379a00000000000000000000000000000000000000000000000000000000081526004016102c19061158b565b60405180910390fd5b6000841161030d576040517f08c379a0000000000000000000000000000000000000000000000000000000008152600401610304906115f7565b60405180910390fd5b60405180606001604052808581526020013373ffffffffffffffffffffffffffffffffffffffff1681526020018473ffffffffffffffffffffffffffffffffffffffff16815250600160008573ffffffffffffffffffffffffffffffffffffffff1673ffffffffffffffffffffffffffffffffffffffff16815260200190815260200160002060008781526020019081526020016000206000820151816000015560208201518160010160006101000a81548173ffffffffffffffffffffffffffffffffffffffff021916908373ffffffffffffffffffffffffffffffffffffffff16021790555060408201518160020160006101000a81548173ffffffffffffffffffffffffffffffffffffffff021916908373ffffffffffffffffffffffffffffffffffffffff1602179055509050507fa6cd73580a273eec6c1026108f6b63479fbaef5356dde4ff43e4b38dd187485f8585604051610470929190611617565b60405180910390a15050505050565b610487610f84565b6000479050600081116104cf576040517f08c379a00000000000000000000000000000000000000000000000000000000081526004016104c69061168c565b60405180910390fd5b60006104d9610830565b73ffffffffffffffffffffffffffffffffffffffff16826040516104fc906116dd565b60006040518083038185875af1925050503d8060008114610539576040519150601f19603f3d011682016040523d82523d6000602084013e61053e565b606091505b505090508015610589577f884edad9ce6fa2440d8a54cc123490eb96d2768479d49ff9c7366125a9424364610571610830565b836040516105809291906116f2565b60405180910390a15b5050565b80823373ffffffffffffffffffffffffffffffffffffffff168273ffffffffffffffffffffffffffffffffffffffff16636352211e836040518263ffffffff1660e01b81526004016105df91906114ab565b602060405180830381865afa1580156105fc573d6000803e3d6000fd5b505050506040513d601f19601f8201168201806040525081019061062091906114db565b73ffffffffffffffffffffffffffffffffffffffff1614610676576040517f08c379a000000000000000000000000000000000000000000000000000000000815260040161066d9061158b565b60405180910390fd5b6000600160008573ffffffffffffffffffffffffffffffffffffffff1673ffffffffffffffffffffffffffffffffffffffff1681526020019081526020016000206000868152602001908152602001600020604051806060016040529081600082015481526020016001820160009054906101000a900473ffffffffffffffffffffffffffffffffffffffff1673ffffffffffffffffffffffffffffffffffffffff1673ffffffffffffffffffffffffffffffffffffffff1681526020016002820160009054906101000a900473ffffffffffffffffffffffffffffffffffffffff1673ffffffffffffffffffffffffffffffffffffffff1673ffffffffffffffffffffffffffffffffffffffff1681525050905060008160000151116107d2576040517f08c379a00000000000000000000000000000000000000000000000000000000081526004016107c990611767565b60405180910390fd5b6107dc8585611002565b7f94bfba22a3ac4a317dcb49320b02b785b485ab65a09eb6e68c2322f4f750439c853360405161080d929190611787565b60405180910390a15050505050565b610824610f84565b61082e60006110f2565b565b60008060009054906101000a900473ffffffffffffffffffffffffffffffffffffffff16905090565b81833373ffffffffffffffffffffffffffffffffffffffff168273ffffffffffffffffffffffffffffffffffffffff16636352211e836040518263ffffffff1660e01b81526004016108ab91906114ab565b602060405180830381865afa1580156108c8573d6000803e3d6000fd5b505050506040513d601f19601f820116820180604052508101906108ec91906114db565b73ffffffffffffffffffffffffffffffffffffffff1614610942576040517f08c379a00000000000000000000000000000000000000000000000000000000081526004016109399061158b565b60405180910390fd5b8373ffffffffffffffffffffffffffffffffffffffff166342842e0e3385886040518463ffffffff1660e01b815260040161097f939291906117b0565b600060405180830381600087803b15801561099957600080fd5b505af11580156109ad573d6000803e3d6000fd5b505050506109bb8585611002565b5050505050565b6000600160008373ffffffffffffffffffffffffffffffffffffffff1673ffffffffffffffffffffffffffffffffffffffff1681526020019081526020016000206000848152602001908152602001600020604051806060016040529081600082015481526020016001820160009054906101000a900473ffffffffffffffffffffffffffffffffffffffff1673ffffffffffffffffffffffffffffffffffffffff1673ffffffffffffffffffffffffffffffffffffffff1681526020016002820160009054906101000a900473ffffffffffffffffffffffffffffffffffffffff1673ffffffffffffffffffffffffffffffffffffffff1673ffffffffffffffffffffffffffffffffffffffff168152505090506000816000015111610b1e576040517f08c379a0000000000000000000000000000000000000000000000000000000008152600401610b1590611767565b60405180910390fd5b3373ffffffffffffffffffffffffffffffffffffffff16816020015173ffffffffffffffffffffffffffffffffffffffff1603610b90576040517f08c379a0000000000000000000000000000000000000000000000000000000008152600401610b8790611833565b60405180910390fd5b8060000151341015610bd7576040517f08c379a0000000000000000000000000000000000000000000000000000000008152600401610bce9061189f565b60405180910390fd5b60008273ffffffffffffffffffffffffffffffffffffffff16636352211e856040518263ffffffff1660e01b8152600401610c1291906114ab565b602060405180830381865afa158015610c2f573d6000803e3d6000fd5b505050506040513d601f19601f82011682018060405250810190610c5391906114db565b90508273ffffffffffffffffffffffffffffffffffffffff166323b872dd8233876040518463ffffffff1660e01b8152600401610c92939291906117b0565b600060405180830381600087803b158015610cac57600080fd5b505af1158015610cc0573d6000803e3d6000fd5b505050506000826020015173ffffffffffffffffffffffffffffffffffffffff16606460628560000151610cf491906118ee565b610cfe919061195f565b604051610d0a906116dd565b60006040518083038185875af1925050503d8060008114610d47576040519150601f19603f3d011682016040523d82523d6000602084013e610d4c565b606091505b505090508015610d9e57610d608585611002565b7fd00b065c8b446c171fc9c9b30461b844a66e2172f8d541f2e0002102f1831d7b8533604051610d91929190611787565b60405180910390a1610dd9565b6040517f08c379a0000000000000000000000000000000000000000000000000000000008152600401610dd090611a02565b60405180910390fd5b5050505050565b610de86111be565b600160008473ffffffffffffffffffffffffffffffffffffffff1673ffffffffffffffffffffffffffffffffffffffff1681526020019081526020016000206000838152602001908152602001600020604051806060016040529081600082015481526020016001820160009054906101000a900473ffffffffffffffffffffffffffffffffffffffff1673ffffffffffffffffffffffffffffffffffffffff1673ffffffffffffffffffffffffffffffffffffffff1681526020016002820160009054906101000a900473ffffffffffffffffffffffffffffffffffffffff1673ffffffffffffffffffffffffffffffffffffffff1673ffffffffffffffffffffffffffffffffffffffff1681525050905092915050565b610f09610f84565b600073ffffffffffffffffffffffffffffffffffffffff168173ffffffffffffffffffffffffffffffffffffffff1603610f78576040517f08c379a0000000000000000000000000000000000000000000000000000000008152600401610f6f90611a94565b60405180910390fd5b610f81816110f2565b50565b610f8c6111b6565b73ffffffffffffffffffffffffffffffffffffffff16610faa610830565b73ffffffffffffffffffffffffffffffffffffffff1614611000576040517f08c379a0000000000000000000000000000000000000000000000000000000008152600401610ff790611b00565b60405180910390fd5b565b6000600160008373ffffffffffffffffffffffffffffffffffffffff1673ffffffffffffffffffffffffffffffffffffffff1681526020019081526020016000206000848152602001908152602001600020600001819055506000600160008373ffffffffffffffffffffffffffffffffffffffff1673ffffffffffffffffffffffffffffffffffffffff168152602001908152602001600020600084815260200190815260200160002060010160006101000a81548173ffffffffffffffffffffffffffffffffffffffff021916908373ffffffffffffffffffffffffffffffffffffffff1602179055505050565b60008060009054906101000a900473ffffffffffffffffffffffffffffffffffffffff169050816000806101000a81548173ffffffffffffffffffffffffffffffffffffffff021916908373ffffffffffffffffffffffffffffffffffffffff1602179055508173ffffffffffffffffffffffffffffffffffffffff168173ffffffffffffffffffffffffffffffffffffffff167f8be0079c531659141344cd1fd0a4f28419497f9722a3daafe3b4186f6b6457e060405160405180910390a35050565b600033905090565b604051806060016040528060008152602001600073ffffffffffffffffffffffffffffffffffffffff168152602001600073ffffffffffffffffffffffffffffffffffffffff1681525090565b600080fd5b6000819050919050565b61122381611210565b811461122e57600080fd5b50565b6000813590506112408161121a565b92915050565b600073ffffffffffffffffffffffffffffffffffffffff82169050919050565b600061127182611246565b9050919050565b61128181611266565b811461128c57600080fd5b50565b60008135905061129e81611278565b92915050565b6000806000606084860312156112bd576112bc61120b565b5b60006112cb86828701611231565b93505060206112dc86828701611231565b92505060406112ed8682870161128f565b9150509250925092565b6000806040838503121561130e5761130d61120b565b5b600061131c85828601611231565b925050602061132d8582860161128f565b9150509250929050565b61134081611266565b82525050565b600060208201905061135b6000830184611337565b92915050565b60008060006060848603121561137a5761137961120b565b5b600061138886828701611231565b93505060206113998682870161128f565b92505060406113aa8682870161128f565b9150509250925092565b600080604083850312156113cb576113ca61120b565b5b60006113d98582860161128f565b92505060206113ea85828601611231565b9150509250929050565b6113fd81611210565b82525050565b61140c81611266565b82525050565b60608201600082015161142860008501826113f4565b50602082015161143b6020850182611403565b50604082015161144e6040850182611403565b50505050565b60006060820190506114696000830184611412565b92915050565b6000602082840312156114855761148461120b565b5b60006114938482850161128f565b91505092915050565b6114a581611210565b82525050565b60006020820190506114c0600083018461149c565b92915050565b6000815190506114d581611278565b92915050565b6000602082840312156114f1576114f061120b565b5b60006114ff848285016114c6565b91505092915050565b600082825260208201905092915050565b7f596f7520617265206e6f7420746865206f776e6572206f662074686520746f6b60008201527f656e2e0000000000000000000000000000000000000000000000000000000000602082015250565b6000611575602383611508565b915061158082611519565b604082019050919050565b600060208201905081810360008301526115a481611568565b9050919050565b7f5072696365206d7573742062652067726561746572207468616e20302e000000600082015250565b60006115e1601d83611508565b91506115ec826115ab565b602082019050919050565b60006020820190508181036000830152611610816115d4565b9050919050565b600060408201905061162c600083018561149c565b611639602083018461149c565b9392505050565b7f456d7074792062616c616e636500000000000000000000000000000000000000600082015250565b6000611676600d83611508565b915061168182611640565b602082019050919050565b600060208201905081810360008301526116a581611669565b9050919050565b600081905092915050565b50565b60006116c76000836116ac565b91506116d2826116b7565b600082019050919050565b60006116e8826116ba565b9150819050919050565b60006040820190506117076000830185611337565b611714602083018461149c565b9392505050565b7f4e4654206e6f74206c697374656420666f722073616c65210000000000000000600082015250565b6000611751601883611508565b915061175c8261171b565b602082019050919050565b6000602082019050818103600083015261178081611744565b9050919050565b600060408201905061179c600083018561149c565b6117a96020830184611337565b9392505050565b60006060820190506117c56000830186611337565b6117d26020830185611337565b6117df604083018461149c565b949350505050565b7f596f752063616e27742062757920796f7572204e465400000000000000000000600082015250565b600061181d601683611508565b9150611828826117e7565b602082019050919050565b6000602082019050818103600083015261184c81611810565b9050919050565b7f596f757220707269636520697320696e636f7272656374210000000000000000600082015250565b6000611889601883611508565b915061189482611853565b602082019050919050565b600060208201905081810360008301526118b88161187c565b9050919050565b7f4e487b7100000000000000000000000000000000000000000000000000000000600052601160045260246000fd5b60006118f982611210565b915061190483611210565b925082820261191281611210565b91508282048414831517611929576119286118bf565b5b5092915050565b7f4e487b7100000000000000000000000000000000000000000000000000000000600052601260045260246000fd5b600061196a82611210565b915061197583611210565b92508261198557611984611930565b5b828204905092915050565b7f4572726f72206f636375726564207768656e207472616e73666572206574682060008201527f746f2073656c6c65722100000000000000000000000000000000000000000000602082015250565b60006119ec602a83611508565b91506119f782611990565b604082019050919050565b60006020820190508181036000830152611a1b816119df565b9050919050565b7f4f776e61626c653a206e6577206f776e657220697320746865207a65726f206160008201527f6464726573730000000000000000000000000000000000000000000000000000602082015250565b6000611a7e602683611508565b9150611a8982611a22565b604082019050919050565b60006020820190508181036000830152611aad81611a71565b9050919050565b7f4f776e61626c653a2063616c6c6572206973206e6f7420746865206f776e6572600082015250565b6000611aea602083611508565b9150611af582611ab4565b602082019050919050565b60006020820190508181036000830152611b1981611add565b905091905056fea26469706673582212204f8bbcdc0096c520523fec2897a1e4c3b106ffeb29fed5e9c210fb699372a21064736f6c63430008110033",
  "linkReferences": {},
  "deployedLinkReferences": {}
}