{
  "_format": "hh-sol-artifact-1",
  "contractName": "Wcdo",
  "sourceName": "contracts/Wcdo.sol",
  "abi": [
    {
      "inputs": [
        {
          "internalType": "string",
          "name": "_baseURI",
          "type": "string"
        }
      ],
      "stateMutability": "nonpayable",
      "type": "constructor"
    },
    {
      "inputs": [],
      "name": "ApprovalCallerNotOwnerNorApproved",
      "type": "error"
    },
    {
      "inputs": [],
      "name": "ApprovalQueryForNonexistentToken",
      "type": "error"
    },
    {
      "inputs": [],
      "name": "BalanceQueryForZeroAddress",
      "type": "error"
    },
    {
      "inputs": [],
      "name": "MintERC2309QuantityExceedsLimit",
      "type": "error"
    },
    {
      "inputs": [],
      "name": "MintToZeroAddress",
      "type": "error"
    },
    {
      "inputs": [],
      "name": "MintZeroQuantity",
      "type": "error"
    },
    {
      "inputs": [],
      "name": "OwnerQueryForNonexistentToken",
      "type": "error"
    },
    {
      "inputs": [],
      "name": "OwnershipNotInitializedForExtraData",
      "type": "error"
    },
    {
      "inputs": [],
      "name": "TransferCallerNotOwnerNorApproved",
      "type": "error"
    },
    {
      "inputs": [],
      "name": "TransferFromIncorrectOwner",
      "type": "error"
    },
    {
      "inputs": [],
      "name": "TransferToNonERC721ReceiverImplementer",
      "type": "error"
    },
    {
      "inputs": [],
      "name": "TransferToZeroAddress",
      "type": "error"
    },
    {
      "inputs": [],
      "name": "URIQueryForNonexistentToken",
      "type": "error"
    },
    {
      "anonymous": false,
      "inputs": [
        {
          "indexed": true,
          "internalType": "address",
          "name": "owner",
          "type": "address"
        },
        {
          "indexed": true,
          "internalType": "address",
          "name": "approved",
          "type": "address"
        },
        {
          "indexed": true,
          "internalType": "uint256",
          "name": "tokenId",
          "type": "uint256"
        }
      ],
      "name": "Approval",
      "type": "event"
    },
    {
      "anonymous": false,
      "inputs": [
        {
          "indexed": true,
          "internalType": "address",
          "name": "owner",
          "type": "address"
        },
        {
          "indexed": true,
          "internalType": "address",
          "name": "operator",
          "type": "address"
        },
        {
          "indexed": false,
          "internalType": "bool",
          "name": "approved",
          "type": "bool"
        }
      ],
      "name": "ApprovalForAll",
      "type": "event"
    },
    {
      "anonymous": false,
      "inputs": [
        {
          "indexed": true,
          "internalType": "uint256",
          "name": "fromTokenId",
          "type": "uint256"
        },
        {
          "indexed": false,
          "internalType": "uint256",
          "name": "toTokenId",
          "type": "uint256"
        },
        {
          "indexed": true,
          "internalType": "address",
          "name": "from",
          "type": "address"
        },
        {
          "indexed": true,
          "internalType": "address",
          "name": "to",
          "type": "address"
        }
      ],
      "name": "ConsecutiveTransfer",
      "type": "event"
    },
    {
      "anonymous": false,
      "inputs": [
        {
          "indexed": true,
          "internalType": "address",
          "name": "previousOwner",
          "type": "address"
        },
        {
          "indexed": true,
          "internalType": "address",
          "name": "newOwner",
          "type": "address"
        }
      ],
      "name": "OwnershipTransferred",
      "type": "event"
    },
    {
      "anonymous": false,
      "inputs": [
        {
          "indexed": true,
          "internalType": "address",
          "name": "from",
          "type": "address"
        },
        {
          "indexed": true,
          "internalType": "address",
          "name": "to",
          "type": "address"
        },
        {
          "indexed": true,
          "internalType": "uint256",
          "name": "tokenId",
          "type": "uint256"
        }
      ],
      "name": "Transfer",
      "type": "event"
    },
    {
      "anonymous": false,
      "inputs": [
        {
          "indexed": false,
          "internalType": "address",
          "name": "owner",
          "type": "address"
        },
        {
          "indexed": false,
          "internalType": "uint256",
          "name": "amount",
          "type": "uint256"
        }
      ],
      "name": "Withdraw",
      "type": "event"
    },
    {
      "inputs": [
        {
          "internalType": "address",
          "name": "to",
          "type": "address"
        },
        {
          "internalType": "uint256",
          "name": "tokenId",
          "type": "uint256"
        }
      ],
      "name": "approve",
      "outputs": [],
      "stateMutability": "payable",
      "type": "function"
    },
    {
      "inputs": [
        {
          "internalType": "address",
          "name": "owner",
          "type": "address"
        }
      ],
      "name": "balanceOf",
      "outputs": [
        {
          "internalType": "uint256",
          "name": "",
          "type": "uint256"
        }
      ],
      "stateMutability": "view",
      "type": "function"
    },
    {
      "inputs": [
        {
          "internalType": "uint256",
          "name": "tokenId",
          "type": "uint256"
        }
      ],
      "name": "getApproved",
      "outputs": [
        {
          "internalType": "address",
          "name": "",
          "type": "address"
        }
      ],
      "stateMutability": "view",
      "type": "function"
    },
    {
      "inputs": [],
      "name": "getBaseURI",
      "outputs": [
        {
          "internalType": "string",
          "name": "",
          "type": "string"
        }
      ],
      "stateMutability": "view",
      "type": "function"
    },
    {
      "inputs": [],
      "name": "getDescription",
      "outputs": [
        {
          "internalType": "string",
          "name": "",
          "type": "string"
        }
      ],
      "stateMutability": "pure",
      "type": "function"
    },
    {
      "inputs": [],
      "name": "getImageURL",
      "outputs": [
        {
          "internalType": "string",
          "name": "",
          "type": "string"
        }
      ],
      "stateMutability": "pure",
      "type": "function"
    },
    {
      "inputs": [],
      "name": "getTotalMinted",
      "outputs": [
        {
          "internalType": "uint256",
          "name": "",
          "type": "uint256"
        }
      ],
      "stateMutability": "view",
      "type": "function"
    },
    {
      "inputs": [
        {
          "internalType": "address",
          "name": "owner",
          "type": "address"
        },
        {
          "internalType": "address",
          "name": "operator",
          "type": "address"
        }
      ],
      "name": "isApprovedForAll",
      "outputs": [
        {
          "internalType": "bool",
          "name": "",
          "type": "bool"
        }
      ],
      "stateMutability": "view",
      "type": "function"
    },
    {
      "inputs": [
        {
          "internalType": "uint16",
          "name": "_qt",
          "type": "uint16"
        }
      ],
      "name": "mint",
      "outputs": [],
      "stateMutability": "payable",
      "type": "function"
    },
    {
      "inputs": [],
      "name": "name",
      "outputs": [
        {
          "internalType": "string",
          "name": "",
          "type": "string"
        }
      ],
      "stateMutability": "view",
      "type": "function"
    },
    {
      "inputs": [],
      "name": "owner",
      "outputs": [
        {
          "internalType": "address",
          "name": "",
          "type": "address"
        }
      ],
      "stateMutability": "view",
      "type": "function"
    },
    {
      "inputs": [
        {
          "internalType": "uint256",
          "name": "tokenId",
          "type": "uint256"
        }
      ],
      "name": "ownerOf",
      "outputs": [
        {
          "internalType": "address",
          "name": "",
          "type": "address"
        }
      ],
      "stateMutability": "view",
      "type": "function"
    },
    {
      "inputs": [],
      "name": "renounceOwnership",
      "outputs": [],
      "stateMutability": "nonpayable",
      "type": "function"
    },
    {
      "inputs": [
        {
          "internalType": "address",
          "name": "from",
          "type": "address"
        },
        {
          "internalType": "address",
          "name": "to",
          "type": "address"
        },
        {
          "internalType": "uint256",
          "name": "tokenId",
          "type": "uint256"
        }
      ],
      "name": "safeTransferFrom",
      "outputs": [],
      "stateMutability": "payable",
      "type": "function"
    },
    {
      "inputs": [
        {
          "internalType": "address",
          "name": "from",
          "type": "address"
        },
        {
          "internalType": "address",
          "name": "to",
          "type": "address"
        },
        {
          "internalType": "uint256",
          "name": "tokenId",
          "type": "uint256"
        },
        {
          "internalType": "bytes",
          "name": "_data",
          "type": "bytes"
        }
      ],
      "name": "safeTransferFrom",
      "outputs": [],
      "stateMutability": "payable",
      "type": "function"
    },
    {
      "inputs": [
        {
          "internalType": "address",
          "name": "operator",
          "type": "address"
        },
        {
          "internalType": "bool",
          "name": "approved",
          "type": "bool"
        }
      ],
      "name": "setApprovalForAll",
      "outputs": [],
      "stateMutability": "nonpayable",
      "type": "function"
    },
    {
      "inputs": [
        {
          "internalType": "string",
          "name": "_baseURI",
          "type": "string"
        }
      ],
      "name": "setBaseURI",
      "outputs": [],
      "stateMutability": "nonpayable",
      "type": "function"
    },
    {
      "inputs": [
        {
          "internalType": "bytes4",
          "name": "interfaceId",
          "type": "bytes4"
        }
      ],
      "name": "supportsInterface",
      "outputs": [
        {
          "internalType": "bool",
          "name": "",
          "type": "bool"
        }
      ],
      "stateMutability": "view",
      "type": "function"
    },
    {
      "inputs": [],
      "name": "symbol",
      "outputs": [
        {
          "internalType": "string",
          "name": "",
          "type": "string"
        }
      ],
      "stateMutability": "view",
      "type": "function"
    },
    {
      "inputs": [
        {
          "internalType": "uint256",
          "name": "_tokenId",
          "type": "uint256"
        }
      ],
      "name": "tokenURI",
      "outputs": [
        {
          "internalType": "string",
          "name": "",
          "type": "string"
        }
      ],
      "stateMutability": "view",
      "type": "function"
    },
    {
      "inputs": [
        {
          "internalType": "address",
          "name": "owner",
          "type": "address"
        }
      ],
      "name": "tokensOfOwner",
      "outputs": [
        {
          "internalType": "uint256[]",
          "name": "",
          "type": "uint256[]"
        }
      ],
      "stateMutability": "view",
      "type": "function"
    },
    {
      "inputs": [],
      "name": "totalSupply",
      "outputs": [
        {
          "internalType": "uint256",
          "name": "",
          "type": "uint256"
        }
      ],
      "stateMutability": "view",
      "type": "function"
    },
    {
      "inputs": [
        {
          "internalType": "address",
          "name": "from",
          "type": "address"
        },
        {
          "internalType": "address",
          "name": "to",
          "type": "address"
        },
        {
          "internalType": "uint256",
          "name": "tokenId",
          "type": "uint256"
        }
      ],
      "name": "transferFrom",
      "outputs": [],
      "stateMutability": "payable",
      "type": "function"
    },
    {
      "inputs": [
        {
          "internalType": "address",
          "name": "newOwner",
          "type": "address"
        }
      ],
      "name": "transferOwnership",
      "outputs": [],
      "stateMutability": "nonpayable",
      "type": "function"
    },
    {
      "inputs": [],
      "name": "withdraw",
      "outputs": [],
      "stateMutability": "nonpayable",
      "type": "function"
    }
  ],
  "bytecode": "0x60806040523480156200001157600080fd5b50604051620038b6380380620038b683398181016040528101906200003791906200037e565b6040518060400160405280601881526020017f5763646f206f6666696369616c20636f6c6c656374696f6e00000000000000008152506040518060400160405280600481526020017f5743444f000000000000000000000000000000000000000000000000000000008152508160029081620000b491906200061a565b508060039081620000c691906200061a565b50620000d76200011860201b60201c565b6000819055505050620000ff620000f36200011d60201b60201c565b6200012560201b60201c565b80600990816200011091906200061a565b505062000701565b600090565b600033905090565b6000600860009054906101000a900473ffffffffffffffffffffffffffffffffffffffff16905081600860006101000a81548173ffffffffffffffffffffffffffffffffffffffff021916908373ffffffffffffffffffffffffffffffffffffffff1602179055508173ffffffffffffffffffffffffffffffffffffffff168173ffffffffffffffffffffffffffffffffffffffff167f8be0079c531659141344cd1fd0a4f28419497f9722a3daafe3b4186f6b6457e060405160405180910390a35050565b6000604051905090565b600080fd5b600080fd5b600080fd5b600080fd5b6000601f19601f8301169050919050565b7f4e487b7100000000000000000000000000000000000000000000000000000000600052604160045260246000fd5b620002548262000209565b810181811067ffffffffffffffff821117156200027657620002756200021a565b5b80604052505050565b60006200028b620001eb565b905062000299828262000249565b919050565b600067ffffffffffffffff821115620002bc57620002bb6200021a565b5b620002c78262000209565b9050602081019050919050565b60005b83811015620002f4578082015181840152602081019050620002d7565b60008484015250505050565b60006200031762000311846200029e565b6200027f565b90508281526020810184848401111562000336576200033562000204565b5b62000343848285620002d4565b509392505050565b600082601f830112620003635762000362620001ff565b5b81516200037584826020860162000300565b91505092915050565b600060208284031215620003975762000396620001f5565b5b600082015167ffffffffffffffff811115620003b857620003b7620001fa565b5b620003c6848285016200034b565b91505092915050565b600081519050919050565b7f4e487b7100000000000000000000000000000000000000000000000000000000600052602260045260246000fd5b600060028204905060018216806200042257607f821691505b602082108103620004385762000437620003da565b5b50919050565b60008190508160005260206000209050919050565b60006020601f8301049050919050565b600082821b905092915050565b600060088302620004a27fffffffffffffffffffffffffffffffffffffffffffffffffffffffffffffffff8262000463565b620004ae868362000463565b95508019841693508086168417925050509392505050565b6000819050919050565b6000819050919050565b6000620004fb620004f5620004ef84620004c6565b620004d0565b620004c6565b9050919050565b6000819050919050565b6200051783620004da565b6200052f620005268262000502565b84845462000470565b825550505050565b600090565b6200054662000537565b620005538184846200050c565b505050565b5b818110156200057b576200056f6000826200053c565b60018101905062000559565b5050565b601f821115620005ca5762000594816200043e565b6200059f8462000453565b81016020851015620005af578190505b620005c7620005be8562000453565b83018262000558565b50505b505050565b600082821c905092915050565b6000620005ef60001984600802620005cf565b1980831691505092915050565b60006200060a8383620005dc565b9150826002028217905092915050565b6200062582620003cf565b67ffffffffffffffff8111156200064157620006406200021a565b5b6200064d825462000409565b6200065a8282856200057f565b600060209050601f8311600181146200069257600084156200067d578287015190505b620006898582620005fc565b865550620006f9565b601f198416620006a2866200043e565b60005b82811015620006cc57848901518255600182019150602085019450602081019050620006a5565b86831015620006ec5784890151620006e8601f891682620005dc565b8355505b6001600288020188555050505b505050505050565b6131a580620007116000396000f3fe6080604052600436106101665760003560e01c80636352211e116100d157806395d89b411161008a578063c87b56dd11610064578063c87b56dd146104d5578063ceefc24314610512578063e985e9c51461053d578063f2fde38b1461057a57610166565b806395d89b4114610465578063a22cb46514610490578063b88d4fde146104b957610166565b80636352211e1461034157806370a082311461037e578063714c5398146103bb578063715018a6146103e65780638462151c146103fd5780638da5cb5b1461043a57610166565b80631a092541116101235780631a0925411461028257806323b872dd146102ad57806323cf0a22146102c95780633ccfd60b146102e557806342842e0e146102fc57806355f804b31461031857610166565b806301ffc9a71461016b57806306fdde03146101a8578063081812fc146101d3578063095ea7b3146102105780630ca1c5c91461022c57806318160ddd14610257575b600080fd5b34801561017757600080fd5b50610192600480360381019061018d9190611ffb565b6105a3565b60405161019f9190612043565b60405180910390f35b3480156101b457600080fd5b506101bd610635565b6040516101ca91906120ee565b60405180910390f35b3480156101df57600080fd5b506101fa60048036038101906101f59190612146565b6106c7565b60405161020791906121b4565b60405180910390f35b61022a600480360381019061022591906121fb565b610746565b005b34801561023857600080fd5b5061024161088a565b60405161024e919061224a565b60405180910390f35b34801561026357600080fd5b5061026c610899565b604051610279919061224a565b60405180910390f35b34801561028e57600080fd5b506102976108b0565b6040516102a491906120ee565b60405180910390f35b6102c760048036038101906102c29190612265565b6108ed565b005b6102e360048036038101906102de91906122f2565b610c0f565b005b3480156102f157600080fd5b506102fa610dc8565b005b61031660048036038101906103119190612265565b610ed6565b005b34801561032457600080fd5b5061033f600480360381019061033a9190612454565b610ef6565b005b34801561034d57600080fd5b5061036860048036038101906103639190612146565b610f11565b60405161037591906121b4565b60405180910390f35b34801561038a57600080fd5b506103a560048036038101906103a0919061249d565b610f23565b6040516103b2919061224a565b60405180910390f35b3480156103c757600080fd5b506103d0610fdb565b6040516103dd91906120ee565b60405180910390f35b3480156103f257600080fd5b506103fb611075565b005b34801561040957600080fd5b50610424600480360381019061041f919061249d565b611089565b6040516104319190612588565b60405180910390f35b34801561044657600080fd5b5061044f6111cc565b60405161045c91906121b4565b60405180910390f35b34801561047157600080fd5b5061047a6111f6565b60405161048791906120ee565b60405180910390f35b34801561049c57600080fd5b506104b760048036038101906104b291906125d6565b611288565b005b6104d360048036038101906104ce91906126b7565b611393565b005b3480156104e157600080fd5b506104fc60048036038101906104f79190612146565b611406565b60405161050991906120ee565b60405180910390f35b34801561051e57600080fd5b50610527611482565b60405161053491906120ee565b60405180910390f35b34801561054957600080fd5b50610564600480360381019061055f919061273a565b6114a2565b6040516105719190612043565b60405180910390f35b34801561058657600080fd5b506105a1600480360381019061059c919061249d565b611536565b005b60006301ffc9a760e01b827bffffffffffffffffffffffffffffffffffffffffffffffffffffffff191614806105fe57506380ac58cd60e01b827bffffffffffffffffffffffffffffffffffffffffffffffffffffffff1916145b8061062e5750635b5e139f60e01b827bffffffffffffffffffffffffffffffffffffffffffffffffffffffff1916145b9050919050565b606060028054610644906127a9565b80601f0160208091040260200160405190810160405280929190818152602001828054610670906127a9565b80156106bd5780601f10610692576101008083540402835291602001916106bd565b820191906000526020600020905b8154815290600101906020018083116106a057829003601f168201915b5050505050905090565b60006106d2826115b9565b610708576040517fcf4700e400000000000000000000000000000000000000000000000000000000815260040160405180910390fd5b6006600083815260200190815260200160002060000160009054906101000a900473ffffffffffffffffffffffffffffffffffffffff169050919050565b600061075182610f11565b90508073ffffffffffffffffffffffffffffffffffffffff16610772611618565b73ffffffffffffffffffffffffffffffffffffffff16146107d55761079e81610799611618565b6114a2565b6107d4576040517fcfb3b94200000000000000000000000000000000000000000000000000000000815260040160405180910390fd5b5b826006600084815260200190815260200160002060000160006101000a81548173ffffffffffffffffffffffffffffffffffffffff021916908373ffffffffffffffffffffffffffffffffffffffff160217905550818373ffffffffffffffffffffffffffffffffffffffff168273ffffffffffffffffffffffffffffffffffffffff167f8c5be1e5ebec7d5bd14f71427d1e84f3dd0314c0f7b2291e5b200ac8c7c3b92560405160405180910390a4505050565b6000610894611620565b905090565b60006108a3611633565b6001546000540303905090565b60606040518060400160405280601881526020017f5763646f206f6666696369616c20636f6c6c656374696f6e0000000000000000815250905090565b60006108f882611638565b90508373ffffffffffffffffffffffffffffffffffffffff168173ffffffffffffffffffffffffffffffffffffffff161461095f576040517fa114810000000000000000000000000000000000000000000000000000000000815260040160405180910390fd5b60008061096b84611704565b91509150610981818761097c611618565b61172b565b6109cd5761099686610991611618565b6114a2565b6109cc576040517f59c896be00000000000000000000000000000000000000000000000000000000815260040160405180910390fd5b5b600073ffffffffffffffffffffffffffffffffffffffff168573ffffffffffffffffffffffffffffffffffffffff1603610a33576040517fea553b3400000000000000000000000000000000000000000000000000000000815260040160405180910390fd5b610a40868686600161176f565b8015610a4b57600082555b600560008773ffffffffffffffffffffffffffffffffffffffff1673ffffffffffffffffffffffffffffffffffffffff168152602001908152602001600020600081546001900391905081905550600560008673ffffffffffffffffffffffffffffffffffffffff1673ffffffffffffffffffffffffffffffffffffffff1681526020019081526020016000206000815460010191905081905550610b1985610af5888887611775565b7c02000000000000000000000000000000000000000000000000000000001761179d565b600460008681526020019081526020016000208190555060007c0200000000000000000000000000000000000000000000000000000000841603610b9f5760006001850190506000600460008381526020019081526020016000205403610b9d576000548114610b9c578360046000838152602001908152602001600020819055505b5b505b838573ffffffffffffffffffffffffffffffffffffffff168773ffffffffffffffffffffffffffffffffffffffff167fddf252ad1be2c89b69c2b068fc378daa952ba7f163c4a11628f55a4df523b3ef60405160405180910390a4610c0786868660016117c8565b505050505050565b600260ff168161ffff16600a60003373ffffffffffffffffffffffffffffffffffffffff1673ffffffffffffffffffffffffffffffffffffffff16815260200190815260200160002054610c639190612809565b1115610ca4576040517f08c379a0000000000000000000000000000000000000000000000000000000008152600401610c9b90612889565b60405180910390fd5b6103e861ffff168161ffff16610cb8610899565b610cc29190612809565b1115610d03576040517f08c379a0000000000000000000000000000000000000000000000000000000008152600401610cfa9061291b565b60405180910390fd5b67016345785d8a00008161ffff16610d1b919061293b565b341015610d5d576040517f08c379a0000000000000000000000000000000000000000000000000000000008152600401610d54906129c9565b60405180910390fd5b8061ffff16600a60003373ffffffffffffffffffffffffffffffffffffffff1673ffffffffffffffffffffffffffffffffffffffff1681526020019081526020016000206000828254610db09190612809565b92505081905550610dc5338261ffff166117ce565b50565b610dd0611989565b600047905060008111610e18576040517f08c379a0000000000000000000000000000000000000000000000000000000008152600401610e0f90612a35565b60405180910390fd5b6000610e226111cc565b73ffffffffffffffffffffffffffffffffffffffff1682604051610e4590612a86565b60006040518083038185875af1925050503d8060008114610e82576040519150601f19603f3d011682016040523d82523d6000602084013e610e87565b606091505b505090508015610ed2577f884edad9ce6fa2440d8a54cc123490eb96d2768479d49ff9c7366125a9424364610eba6111cc565b83604051610ec9929190612a9b565b60405180910390a15b5050565b610ef183838360405180602001604052806000815250611393565b505050565b610efe611989565b8060099081610f0d9190612c70565b5050565b6000610f1c82611638565b9050919050565b60008073ffffffffffffffffffffffffffffffffffffffff168273ffffffffffffffffffffffffffffffffffffffff1603610f8a576040517f8f4eb60400000000000000000000000000000000000000000000000000000000815260040160405180910390fd5b67ffffffffffffffff600560008473ffffffffffffffffffffffffffffffffffffffff1673ffffffffffffffffffffffffffffffffffffffff16815260200190815260200160002054169050919050565b6060610fe5611989565b60098054610ff2906127a9565b80601f016020809104026020016040519081016040528092919081815260200182805461101e906127a9565b801561106b5780601f106110405761010080835404028352916020019161106b565b820191906000526020600020905b81548152906001019060200180831161104e57829003601f168201915b5050505050905090565b61107d611989565b6110876000611a07565b565b6060600080600061109985610f23565b905060008167ffffffffffffffff8111156110b7576110b6612329565b5b6040519080825280602002602001820160405280156110e55781602001602082028036833780820191505090505b5090506110f0611f40565b60006110fa611633565b90505b8386146111be5761110d81611acd565b915081604001516111b357600073ffffffffffffffffffffffffffffffffffffffff16826000015173ffffffffffffffffffffffffffffffffffffffff161461115857816000015194505b8773ffffffffffffffffffffffffffffffffffffffff168573ffffffffffffffffffffffffffffffffffffffff16036111b257808387806001019850815181106111a5576111a4612d42565b5b6020026020010181815250505b5b8060010190506110fd565b508195505050505050919050565b6000600860009054906101000a900473ffffffffffffffffffffffffffffffffffffffff16905090565b606060038054611205906127a9565b80601f0160208091040260200160405190810160405280929190818152602001828054611231906127a9565b801561127e5780601f106112535761010080835404028352916020019161127e565b820191906000526020600020905b81548152906001019060200180831161126157829003601f168201915b5050505050905090565b8060076000611295611618565b73ffffffffffffffffffffffffffffffffffffffff1673ffffffffffffffffffffffffffffffffffffffff16815260200190815260200160002060008473ffffffffffffffffffffffffffffffffffffffff1673ffffffffffffffffffffffffffffffffffffffff16815260200190815260200160002060006101000a81548160ff0219169083151502179055508173ffffffffffffffffffffffffffffffffffffffff16611342611618565b73ffffffffffffffffffffffffffffffffffffffff167f17307eab39ab6107e8899845ad3d59bd9653f200f220920489ca2b5937696c31836040516113879190612043565b60405180910390a35050565b61139e8484846108ed565b60008373ffffffffffffffffffffffffffffffffffffffff163b14611400576113c984848484611af8565b6113ff576040517fd1a57ed600000000000000000000000000000000000000000000000000000000815260040160405180910390fd5b5b50505050565b6060611411826115b9565b611450576040517f08c379a000000000000000000000000000000000000000000000000000000000815260040161144790612dbd565b60405180910390fd5b600961145b83611c48565b60405160200161146c929190612ee8565b6040516020818303038152906040529050919050565b606060405180608001604052806048815260200161312860489139905090565b6000600760008473ffffffffffffffffffffffffffffffffffffffff1673ffffffffffffffffffffffffffffffffffffffff16815260200190815260200160002060008373ffffffffffffffffffffffffffffffffffffffff1673ffffffffffffffffffffffffffffffffffffffff16815260200190815260200160002060009054906101000a900460ff16905092915050565b61153e611989565b600073ffffffffffffffffffffffffffffffffffffffff168173ffffffffffffffffffffffffffffffffffffffff16036115ad576040517f08c379a00000000000000000000000000000000000000000000000000000000081526004016115a490612f89565b60405180910390fd5b6115b681611a07565b50565b6000816115c4611633565b111580156115d3575060005482105b8015611611575060007c0100000000000000000000000000000000000000000000000000000000600460008581526020019081526020016000205416145b9050919050565b600033905090565b600061162a611633565b60005403905090565b600090565b60008082905080611647611633565b116116cd576000548110156116cc5760006004600083815260200190815260200160002054905060007c01000000000000000000000000000000000000000000000000000000008216036116ca575b600081036116c0576004600083600190039350838152602001908152602001600020549050611696565b80925050506116ff565b505b5b6040517fdf2d9b4200000000000000000000000000000000000000000000000000000000815260040160405180910390fd5b919050565b60008060006006600085815260200190815260200160002090508092508254915050915091565b600073ffffffffffffffffffffffffffffffffffffffff8316925073ffffffffffffffffffffffffffffffffffffffff821691508382148383141790509392505050565b50505050565b60008060e883901c905060e861178c868684611d16565b62ffffff16901b9150509392505050565b600073ffffffffffffffffffffffffffffffffffffffff83169250814260a01b178317905092915050565b50505050565b6000805490506000820361180e576040517fb562e8dd00000000000000000000000000000000000000000000000000000000815260040160405180910390fd5b61181b600084838561176f565b600160406001901b178202600560008573ffffffffffffffffffffffffffffffffffffffff1673ffffffffffffffffffffffffffffffffffffffff16815260200190815260200160002060008282540192505081905550611892836118836000866000611775565b61188c85611d1f565b1761179d565b6004600083815260200190815260200160002081905550600080838301905073ffffffffffffffffffffffffffffffffffffffff85169150828260007fddf252ad1be2c89b69c2b068fc378daa952ba7f163c4a11628f55a4df523b3ef600080a4600183015b81811461193357808360007fddf252ad1be2c89b69c2b068fc378daa952ba7f163c4a11628f55a4df523b3ef600080a46001810190506118f8565b506000820361196e576040517f2e07630000000000000000000000000000000000000000000000000000000000815260040160405180910390fd5b80600081905550505061198460008483856117c8565b505050565b611991611d2f565b73ffffffffffffffffffffffffffffffffffffffff166119af6111cc565b73ffffffffffffffffffffffffffffffffffffffff1614611a05576040517f08c379a00000000000000000000000000000000000000000000000000000000081526004016119fc90612ff5565b60405180910390fd5b565b6000600860009054906101000a900473ffffffffffffffffffffffffffffffffffffffff16905081600860006101000a81548173ffffffffffffffffffffffffffffffffffffffff021916908373ffffffffffffffffffffffffffffffffffffffff1602179055508173ffffffffffffffffffffffffffffffffffffffff168173ffffffffffffffffffffffffffffffffffffffff167f8be0079c531659141344cd1fd0a4f28419497f9722a3daafe3b4186f6b6457e060405160405180910390a35050565b611ad5611f40565b611af16004600084815260200190815260200160002054611d37565b9050919050565b60008373ffffffffffffffffffffffffffffffffffffffff1663150b7a02611b1e611618565b8786866040518563ffffffff1660e01b8152600401611b40949392919061306a565b6020604051808303816000875af1925050508015611b7c57506040513d601f19601f82011682018060405250810190611b7991906130cb565b60015b611bf5573d8060008114611bac576040519150601f19603f3d011682016040523d82523d6000602084013e611bb1565b606091505b506000815103611bed576040517fd1a57ed600000000000000000000000000000000000000000000000000000000815260040160405180910390fd5b805181602001fd5b63150b7a0260e01b7bffffffffffffffffffffffffffffffffffffffffffffffffffffffff1916817bffffffffffffffffffffffffffffffffffffffffffffffffffffffff191614915050949350505050565b606060006001611c5784611ded565b01905060008167ffffffffffffffff811115611c7657611c75612329565b5b6040519080825280601f01601f191660200182016040528015611ca85781602001600182028036833780820191505090505b509050600082602001820190505b600115611d0b578080600190039150507f3031323334353637383961626364656600000000000000000000000000000000600a86061a8153600a8581611cff57611cfe6130f8565b5b04945060008503611cb6575b819350505050919050565b60009392505050565b60006001821460e11b9050919050565b600033905090565b611d3f611f40565b81816000019073ffffffffffffffffffffffffffffffffffffffff16908173ffffffffffffffffffffffffffffffffffffffff168152505060a082901c816020019067ffffffffffffffff16908167ffffffffffffffff168152505060007c01000000000000000000000000000000000000000000000000000000008316141581604001901515908115158152505060e882901c816060019062ffffff16908162ffffff1681525050919050565b600080600090507a184f03e93ff9f4daa797ed6e38ed64bf6a1f0100000000000000008310611e4b577a184f03e93ff9f4daa797ed6e38ed64bf6a1f0100000000000000008381611e4157611e406130f8565b5b0492506040810190505b6d04ee2d6d415b85acef81000000008310611e88576d04ee2d6d415b85acef81000000008381611e7e57611e7d6130f8565b5b0492506020810190505b662386f26fc100008310611eb757662386f26fc100008381611ead57611eac6130f8565b5b0492506010810190505b6305f5e1008310611ee0576305f5e1008381611ed657611ed56130f8565b5b0492506008810190505b6127108310611f05576127108381611efb57611efa6130f8565b5b0492506004810190505b60648310611f285760648381611f1e57611f1d6130f8565b5b0492506002810190505b600a8310611f37576001810190505b80915050919050565b6040518060800160405280600073ffffffffffffffffffffffffffffffffffffffff168152602001600067ffffffffffffffff168152602001600015158152602001600062ffffff1681525090565b6000604051905090565b600080fd5b600080fd5b60007fffffffff0000000000000000000000000000000000000000000000000000000082169050919050565b611fd881611fa3565b8114611fe357600080fd5b50565b600081359050611ff581611fcf565b92915050565b60006020828403121561201157612010611f99565b5b600061201f84828501611fe6565b91505092915050565b60008115159050919050565b61203d81612028565b82525050565b60006020820190506120586000830184612034565b92915050565b600081519050919050565b600082825260208201905092915050565b60005b8381101561209857808201518184015260208101905061207d565b60008484015250505050565b6000601f19601f8301169050919050565b60006120c08261205e565b6120ca8185612069565b93506120da81856020860161207a565b6120e3816120a4565b840191505092915050565b6000602082019050818103600083015261210881846120b5565b905092915050565b6000819050919050565b61212381612110565b811461212e57600080fd5b50565b6000813590506121408161211a565b92915050565b60006020828403121561215c5761215b611f99565b5b600061216a84828501612131565b91505092915050565b600073ffffffffffffffffffffffffffffffffffffffff82169050919050565b600061219e82612173565b9050919050565b6121ae81612193565b82525050565b60006020820190506121c960008301846121a5565b92915050565b6121d881612193565b81146121e357600080fd5b50565b6000813590506121f5816121cf565b92915050565b6000806040838503121561221257612211611f99565b5b6000612220858286016121e6565b925050602061223185828601612131565b9150509250929050565b61224481612110565b82525050565b600060208201905061225f600083018461223b565b92915050565b60008060006060848603121561227e5761227d611f99565b5b600061228c868287016121e6565b935050602061229d868287016121e6565b92505060406122ae86828701612131565b9150509250925092565b600061ffff82169050919050565b6122cf816122b8565b81146122da57600080fd5b50565b6000813590506122ec816122c6565b92915050565b60006020828403121561230857612307611f99565b5b6000612316848285016122dd565b91505092915050565b600080fd5b600080fd5b7f4e487b7100000000000000000000000000000000000000000000000000000000600052604160045260246000fd5b612361826120a4565b810181811067ffffffffffffffff821117156123805761237f612329565b5b80604052505050565b6000612393611f8f565b905061239f8282612358565b919050565b600067ffffffffffffffff8211156123bf576123be612329565b5b6123c8826120a4565b9050602081019050919050565b82818337600083830152505050565b60006123f76123f2846123a4565b612389565b90508281526020810184848401111561241357612412612324565b5b61241e8482856123d5565b509392505050565b600082601f83011261243b5761243a61231f565b5b813561244b8482602086016123e4565b91505092915050565b60006020828403121561246a57612469611f99565b5b600082013567ffffffffffffffff81111561248857612487611f9e565b5b61249484828501612426565b91505092915050565b6000602082840312156124b3576124b2611f99565b5b60006124c1848285016121e6565b91505092915050565b600081519050919050565b600082825260208201905092915050565b6000819050602082019050919050565b6124ff81612110565b82525050565b600061251183836124f6565b60208301905092915050565b6000602082019050919050565b6000612535826124ca565b61253f81856124d5565b935061254a836124e6565b8060005b8381101561257b5781516125628882612505565b975061256d8361251d565b92505060018101905061254e565b5085935050505092915050565b600060208201905081810360008301526125a2818461252a565b905092915050565b6125b381612028565b81146125be57600080fd5b50565b6000813590506125d0816125aa565b92915050565b600080604083850312156125ed576125ec611f99565b5b60006125fb858286016121e6565b925050602061260c858286016125c1565b9150509250929050565b600067ffffffffffffffff82111561263157612630612329565b5b61263a826120a4565b9050602081019050919050565b600061265a61265584612616565b612389565b90508281526020810184848401111561267657612675612324565b5b6126818482856123d5565b509392505050565b600082601f83011261269e5761269d61231f565b5b81356126ae848260208601612647565b91505092915050565b600080600080608085870312156126d1576126d0611f99565b5b60006126df878288016121e6565b94505060206126f0878288016121e6565b935050604061270187828801612131565b925050606085013567ffffffffffffffff81111561272257612721611f9e565b5b61272e87828801612689565b91505092959194509250565b6000806040838503121561275157612750611f99565b5b600061275f858286016121e6565b9250506020612770858286016121e6565b9150509250929050565b7f4e487b7100000000000000000000000000000000000000000000000000000000600052602260045260246000fd5b600060028204905060018216806127c157607f821691505b6020821081036127d4576127d361277a565b5b50919050565b7f4e487b7100000000000000000000000000000000000000000000000000000000600052601160045260246000fd5b600061281482612110565b915061281f83612110565b9250828201905080821115612837576128366127da565b5b92915050565b7f596f752063616e206f6e6c79206d696e742032204e4654730000000000000000600082015250565b6000612873601883612069565b915061287e8261283d565b602082019050919050565b600060208201905081810360008301526128a281612866565b9050919050565b7f4d617820737570706c792065786365656465642e204d696e7420736f6c64206f60008201527f7574210000000000000000000000000000000000000000000000000000000000602082015250565b6000612905602383612069565b9150612910826128a9565b604082019050919050565b60006020820190508181036000830152612934816128f8565b9050919050565b600061294682612110565b915061295183612110565b925082820261295f81612110565b91508282048414831517612976576129756127da565b5b5092915050565b7f4e6f7420656e6f7567682066756e64732070726f766964656400000000000000600082015250565b60006129b3601983612069565b91506129be8261297d565b602082019050919050565b600060208201905081810360008301526129e2816129a6565b9050919050565b7f456d7074792062616c616e636500000000000000000000000000000000000000600082015250565b6000612a1f600d83612069565b9150612a2a826129e9565b602082019050919050565b60006020820190508181036000830152612a4e81612a12565b9050919050565b600081905092915050565b50565b6000612a70600083612a55565b9150612a7b82612a60565b600082019050919050565b6000612a9182612a63565b9150819050919050565b6000604082019050612ab060008301856121a5565b612abd602083018461223b565b9392505050565b60008190508160005260206000209050919050565b60006020601f8301049050919050565b600082821b905092915050565b600060088302612b267fffffffffffffffffffffffffffffffffffffffffffffffffffffffffffffffff82612ae9565b612b308683612ae9565b95508019841693508086168417925050509392505050565b6000819050919050565b6000612b6d612b68612b6384612110565b612b48565b612110565b9050919050565b6000819050919050565b612b8783612b52565b612b9b612b9382612b74565b848454612af6565b825550505050565b600090565b612bb0612ba3565b612bbb818484612b7e565b505050565b5b81811015612bdf57612bd4600082612ba8565b600181019050612bc1565b5050565b601f821115612c2457612bf581612ac4565b612bfe84612ad9565b81016020851015612c0d578190505b612c21612c1985612ad9565b830182612bc0565b50505b505050565b600082821c905092915050565b6000612c4760001984600802612c29565b1980831691505092915050565b6000612c608383612c36565b9150826002028217905092915050565b612c798261205e565b67ffffffffffffffff811115612c9257612c91612329565b5b612c9c82546127a9565b612ca7828285612be3565b600060209050601f831160018114612cda5760008415612cc8578287015190505b612cd28582612c54565b865550612d3a565b601f198416612ce886612ac4565b60005b82811015612d1057848901518255600182019150602085019450602081019050612ceb565b86831015612d2d5784890151612d29601f891682612c36565b8355505b6001600288020188555050505b505050505050565b7f4e487b7100000000000000000000000000000000000000000000000000000000600052603260045260246000fd5b7f55524920717565727920666f72206e6f6e6578697374656e7420746f6b656e00600082015250565b6000612da7601f83612069565b9150612db282612d71565b602082019050919050565b60006020820190508181036000830152612dd681612d9a565b9050919050565b600081905092915050565b60008154612df5816127a9565b612dff8186612ddd565b94506001821660008114612e1a5760018114612e2f57612e62565b60ff1983168652811515820286019350612e62565b612e3885612ac4565b60005b83811015612e5a57815481890152600182019150602081019050612e3b565b838801955050505b50505092915050565b6000612e768261205e565b612e808185612ddd565b9350612e9081856020860161207a565b80840191505092915050565b7f2e6a736f6e000000000000000000000000000000000000000000000000000000600082015250565b6000612ed2600583612ddd565b9150612edd82612e9c565b600582019050919050565b6000612ef48285612de8565b9150612f008284612e6b565b9150612f0b82612ec5565b91508190509392505050565b7f4f776e61626c653a206e6577206f776e657220697320746865207a65726f206160008201527f6464726573730000000000000000000000000000000000000000000000000000602082015250565b6000612f73602683612069565b9150612f7e82612f17565b604082019050919050565b60006020820190508181036000830152612fa281612f66565b9050919050565b7f4f776e61626c653a2063616c6c6572206973206e6f7420746865206f776e6572600082015250565b6000612fdf602083612069565b9150612fea82612fa9565b602082019050919050565b6000602082019050818103600083015261300e81612fd2565b9050919050565b600081519050919050565b600082825260208201905092915050565b600061303c82613015565b6130468185613020565b935061305681856020860161207a565b61305f816120a4565b840191505092915050565b600060808201905061307f60008301876121a5565b61308c60208301866121a5565b613099604083018561223b565b81810360608301526130ab8184613031565b905095945050505050565b6000815190506130c581611fcf565b92915050565b6000602082840312156130e1576130e0611f99565b5b60006130ef848285016130b6565b91505092915050565b7f4e487b7100000000000000000000000000000000000000000000000000000000600052601260045260246000fdfe697066733a2f2f626166796265696868336b6371733436723373746535706d79626570716372336d6332373674686b666b6a6e7863657a636c637033637374776f342f302e706e67a26469706673582212201d7a452126719375aeccbfc6d6ff317567cfc1642cfaee17b6738de5fe046c2564736f6c63430008110033",
  "linkReferences": {},
  "deployedLinkReferences": {}
}